{
  "_format": "hh-sol-artifact-1",
  "contractName": "Journal",
  "sourceName": "contracts/Journal.sol",
  "abi": [
    {
      "anonymous": false,
      "inputs": [
        {
          "indexed": false,
          "internalType": "uint256",
          "name": "outputIdNumber",
          "type": "uint256"
        },
        {
          "indexed": false,
          "internalType": "string",
          "name": "outputPath",
          "type": "string"
        },
        {
          "indexed": false,
          "internalType": "string",
          "name": "outputHash",
          "type": "string"
        },
        {
          "indexed": false,
          "internalType": "bool",
          "name": "isPublished",
          "type": "bool"
        },
        {
          "indexed": false,
          "internalType": "address payable",
          "name": "uploader",
          "type": "address"
        }
      ],
      "name": "OutputUploaded",
      "type": "event"
    },
    {
      "inputs": [
        {
          "internalType": "uint256",
          "name": "_outputNumber",
          "type": "uint256"
        }
      ],
      "name": "getOutputByFileNumber",
      "outputs": [
        {
          "internalType": "uint256",
          "name": "",
          "type": "uint256"
        },
        {
          "internalType": "string",
          "name": "",
          "type": "string"
        },
        {
          "internalType": "string",
          "name": "",
          "type": "string"
        },
        {
          "internalType": "bool",
          "name": "",
          "type": "bool"
        },
        {
          "internalType": "address payable",
          "name": "",
          "type": "address"
        }
      ],
      "stateMutability": "view",
      "type": "function"
    },
    {
      "inputs": [],
      "name": "name",
      "outputs": [
        {
          "internalType": "string",
          "name": "",
          "type": "string"
        }
      ],
      "stateMutability": "view",
      "type": "function"
    },
    {
      "inputs": [],
      "name": "outputCount",
      "outputs": [
        {
          "internalType": "uint256",
          "name": "",
          "type": "uint256"
        }
      ],
      "stateMutability": "view",
      "type": "function"
    },
    {
      "inputs": [
        {
          "internalType": "uint256",
          "name": "",
          "type": "uint256"
        }
      ],
      "name": "outputs",
      "outputs": [
        {
          "internalType": "uint256",
          "name": "outputIdNumber",
          "type": "uint256"
        },
        {
          "internalType": "string",
          "name": "outputPath",
          "type": "string"
        },
        {
          "internalType": "string",
          "name": "outputHash",
          "type": "string"
        },
        {
          "internalType": "bool",
          "name": "isPublished",
          "type": "bool"
        },
        {
          "internalType": "address payable",
          "name": "uploader",
          "type": "address"
        }
      ],
      "stateMutability": "view",
      "type": "function"
    },
    {
      "inputs": [
        {
          "internalType": "string",
          "name": "_outputPath",
          "type": "string"
        },
        {
          "internalType": "string",
          "name": "_outputHash",
          "type": "string"
        },
        {
          "internalType": "bool",
          "name": "_isPublished",
          "type": "bool"
        }
      ],
      "name": "uploadOutput",
      "outputs": [],
      "stateMutability": "nonpayable",
      "type": "function"
    }
  ],
  "bytecode": "0x60806040526040518060400160405280601281526020017f426c6f636b636861696e204a6f75726e616c0000000000000000000000000000815250600090816200004a9190620002de565b5060006001553480156200005d57600080fd5b50620003c5565b600081519050919050565b7f4e487b7100000000000000000000000000000000000000000000000000000000600052604160045260246000fd5b7f4e487b7100000000000000000000000000000000000000000000000000000000600052602260045260246000fd5b60006002820490506001821680620000e657607f821691505b602082108103620000fc57620000fb6200009e565b5b50919050565b60008190508160005260206000209050919050565b60006020601f8301049050919050565b600082821b905092915050565b600060088302620001667fffffffffffffffffffffffffffffffffffffffffffffffffffffffffffffffff8262000127565b62000172868362000127565b95508019841693508086168417925050509392505050565b6000819050919050565b6000819050919050565b6000620001bf620001b9620001b3846200018a565b62000194565b6200018a565b9050919050565b6000819050919050565b620001db836200019e565b620001f3620001ea82620001c6565b84845462000134565b825550505050565b600090565b6200020a620001fb565b62000217818484620001d0565b505050565b5b818110156200023f576200023360008262000200565b6001810190506200021d565b5050565b601f8211156200028e57620002588162000102565b620002638462000117565b8101602085101562000273578190505b6200028b620002828562000117565b8301826200021c565b50505b505050565b600082821c905092915050565b6000620002b36000198460080262000293565b1980831691505092915050565b6000620002ce8383620002a0565b9150826002028217905092915050565b620002e98262000064565b67ffffffffffffffff8111156200030557620003046200006f565b5b620003118254620000cd565b6200031e82828562000243565b600060209050601f83116001811462000356576000841562000341578287015190505b6200034d8582620002c0565b865550620003bd565b601f198416620003668662000102565b60005b82811015620003905784890151825560018201915060208501945060208101905062000369565b86831015620003b05784890151620003ac601f891682620002a0565b8355505b6001600288020188555050505b505050505050565b610e4980620003d56000396000f3fe608060405234801561001057600080fd5b50600436106100575760003560e01c806306fdde031461005c5780630ee2d3311461007a5780634001d40d1461009857806376679214146100cc5780639149bdf2146100e8575b600080fd5b61006461011c565b6040516100719190610752565b60405180910390f35b6100826101aa565b60405161008f919061078d565b60405180910390f35b6100b260048036038101906100ad91906107e8565b6101b0565b6040516100c3959493929190610871565b60405180910390f35b6100e660048036038101906100e19190610a33565b6103a6565b005b61010260048036038101906100fd91906107e8565b61054f565b604051610113959493929190610871565b60405180910390f35b6000805461012990610aed565b80601f016020809104026020016040519081016040528092919081815260200182805461015590610aed565b80156101a25780601f10610177576101008083540402835291602001916101a2565b820191906000526020600020905b81548152906001019060200180831161018557829003601f168201915b505050505081565b60015481565b60006060806000806000600260008881526020019081526020016000206040518060a0016040529081600082015481526020016001820180546101f290610aed565b80601f016020809104026020016040519081016040528092919081815260200182805461021e90610aed565b801561026b5780601f106102405761010080835404028352916020019161026b565b820191906000526020600020905b81548152906001019060200180831161024e57829003601f168201915b5050505050815260200160028201805461028490610aed565b80601f01602080910402602001604051908101604052809291908181526020018280546102b090610aed565b80156102fd5780601f106102d2576101008083540402835291602001916102fd565b820191906000526020600020905b8154815290600101906020018083116102e057829003601f168201915b505050505081526020016003820160009054906101000a900460ff161515151581526020016003820160019054906101000a900473ffffffffffffffffffffffffffffffffffffffff1673ffffffffffffffffffffffffffffffffffffffff1673ffffffffffffffffffffffffffffffffffffffff1681525050905080600001518160200151826040015183606001518460800151955095509550955095505091939590929450565b60008351116103b457600080fd5b60008251116103c257600080fd5b600073ffffffffffffffffffffffffffffffffffffffff163373ffffffffffffffffffffffffffffffffffffffff16036103fb57600080fd5b6001600081548092919061040e90610b4d565b91905055506040518060a00160405280600154815260200184815260200183815260200182151581526020013373ffffffffffffffffffffffffffffffffffffffff168152506002600060015481526020019081526020016000206000820151816000015560208201518160010190816104889190610d41565b50604082015181600201908161049e9190610d41565b5060608201518160030160006101000a81548160ff02191690831515021790555060808201518160030160016101000a81548173ffffffffffffffffffffffffffffffffffffffff021916908373ffffffffffffffffffffffffffffffffffffffff1602179055509050507f4ddf74a54a02075e1c18f0d03570ca08783e2baaef72e38c2daf611c9ae1fb2860015484848433604051610542959493929190610871565b60405180910390a1505050565b600260205280600052604060002060009150905080600001549080600101805461057890610aed565b80601f01602080910402602001604051908101604052809291908181526020018280546105a490610aed565b80156105f15780601f106105c6576101008083540402835291602001916105f1565b820191906000526020600020905b8154815290600101906020018083116105d457829003601f168201915b50505050509080600201805461060690610aed565b80601f016020809104026020016040519081016040528092919081815260200182805461063290610aed565b801561067f5780601f106106545761010080835404028352916020019161067f565b820191906000526020600020905b81548152906001019060200180831161066257829003601f168201915b5050505050908060030160009054906101000a900460ff16908060030160019054906101000a900473ffffffffffffffffffffffffffffffffffffffff16905085565b600081519050919050565b600082825260208201905092915050565b60005b838110156106fc5780820151818401526020810190506106e1565b60008484015250505050565b6000601f19601f8301169050919050565b6000610724826106c2565b61072e81856106cd565b935061073e8185602086016106de565b61074781610708565b840191505092915050565b6000602082019050818103600083015261076c8184610719565b905092915050565b6000819050919050565b61078781610774565b82525050565b60006020820190506107a2600083018461077e565b92915050565b6000604051905090565b600080fd5b600080fd5b6107c581610774565b81146107d057600080fd5b50565b6000813590506107e2816107bc565b92915050565b6000602082840312156107fe576107fd6107b2565b5b600061080c848285016107d3565b91505092915050565b60008115159050919050565b61082a81610815565b82525050565b600073ffffffffffffffffffffffffffffffffffffffff82169050919050565b600061085b82610830565b9050919050565b61086b81610850565b82525050565b600060a082019050610886600083018861077e565b81810360208301526108988187610719565b905081810360408301526108ac8186610719565b90506108bb6060830185610821565b6108c86080830184610862565b9695505050505050565b600080fd5b600080fd5b7f4e487b7100000000000000000000000000000000000000000000000000000000600052604160045260246000fd5b61091482610708565b810181811067ffffffffffffffff82111715610933576109326108dc565b5b80604052505050565b60006109466107a8565b9050610952828261090b565b919050565b600067ffffffffffffffff821115610972576109716108dc565b5b61097b82610708565b9050602081019050919050565b82818337600083830152505050565b60006109aa6109a584610957565b61093c565b9050828152602081018484840111156109c6576109c56108d7565b5b6109d1848285610988565b509392505050565b600082601f8301126109ee576109ed6108d2565b5b81356109fe848260208601610997565b91505092915050565b610a1081610815565b8114610a1b57600080fd5b50565b600081359050610a2d81610a07565b92915050565b600080600060608486031215610a4c57610a4b6107b2565b5b600084013567ffffffffffffffff811115610a6a57610a696107b7565b5b610a76868287016109d9565b935050602084013567ffffffffffffffff811115610a9757610a966107b7565b5b610aa3868287016109d9565b9250506040610ab486828701610a1e565b9150509250925092565b7f4e487b7100000000000000000000000000000000000000000000000000000000600052602260045260246000fd5b60006002820490506001821680610b0557607f821691505b602082108103610b1857610b17610abe565b5b50919050565b7f4e487b7100000000000000000000000000000000000000000000000000000000600052601160045260246000fd5b6000610b5882610774565b91507fffffffffffffffffffffffffffffffffffffffffffffffffffffffffffffffff8203610b8a57610b89610b1e565b5b600182019050919050565b60008190508160005260206000209050919050565b60006020601f8301049050919050565b600082821b905092915050565b600060088302610bf77fffffffffffffffffffffffffffffffffffffffffffffffffffffffffffffffff82610bba565b610c018683610bba565b95508019841693508086168417925050509392505050565b6000819050919050565b6000610c3e610c39610c3484610774565b610c19565b610774565b9050919050565b6000819050919050565b610c5883610c23565b610c6c610c6482610c45565b848454610bc7565b825550505050565b600090565b610c81610c74565b610c8c818484610c4f565b505050565b5b81811015610cb057610ca5600082610c79565b600181019050610c92565b5050565b601f821115610cf557610cc681610b95565b610ccf84610baa565b81016020851015610cde578190505b610cf2610cea85610baa565b830182610c91565b50505b505050565b600082821c905092915050565b6000610d1860001984600802610cfa565b1980831691505092915050565b6000610d318383610d07565b9150826002028217905092915050565b610d4a826106c2565b67ffffffffffffffff811115610d6357610d626108dc565b5b610d6d8254610aed565b610d78828285610cb4565b600060209050601f831160018114610dab5760008415610d99578287015190505b610da38582610d25565b865550610e0b565b601f198416610db986610b95565b60005b82811015610de157848901518255600182019150602085019450602081019050610dbc565b86831015610dfe5784890151610dfa601f891682610d07565b8355505b6001600288020188555050505b50505050505056fea2646970667358221220621c218876d9220c319a31a8aa5ade7f59136b1a1e17072b919a30d80b54bd2f64736f6c63430008110033",
  "linkReferences": {},
  "deployedLinkReferences": {}
}