{
  "_format": "hh-sol-artifact-1",
  "contractName": "Journal",
  "sourceName": "contracts/Journal.sol",
  "abi": [
    {
      "anonymous": false,
      "inputs": [
        {
          "indexed": false,
          "internalType": "uint256",
          "name": "fileId",
          "type": "uint256"
        },
        {
          "indexed": false,
          "internalType": "string",
          "name": "filePath",
          "type": "string"
        },
        {
          "indexed": false,
          "internalType": "uint256",
          "name": "fileSize",
          "type": "uint256"
        },
        {
          "indexed": false,
          "internalType": "string",
          "name": "fileType",
          "type": "string"
        },
        {
          "indexed": false,
          "internalType": "string",
          "name": "fileName",
          "type": "string"
        },
        {
          "indexed": false,
          "internalType": "address payable",
          "name": "uploader",
          "type": "address"
        }
      ],
      "name": "OutputUploaded",
      "type": "event"
    },
    {
      "inputs": [],
      "name": "decrementFileCountForTesting",
      "outputs": [],
      "stateMutability": "nonpayable",
      "type": "function"
    },
    {
      "inputs": [],
      "name": "fileCount",
      "outputs": [
        {
          "internalType": "uint256",
          "name": "",
          "type": "uint256"
        }
      ],
      "stateMutability": "view",
      "type": "function"
    },
    {
      "inputs": [
        {
          "internalType": "uint256",
          "name": "",
          "type": "uint256"
        }
      ],
      "name": "files",
      "outputs": [
        {
          "internalType": "uint256",
          "name": "fileId",
          "type": "uint256"
        },
        {
          "internalType": "string",
          "name": "filePath",
          "type": "string"
        },
        {
          "internalType": "uint256",
          "name": "fileSize",
          "type": "uint256"
        },
        {
          "internalType": "string",
          "name": "fileType",
          "type": "string"
        },
        {
          "internalType": "string",
          "name": "fileName",
          "type": "string"
        },
        {
          "internalType": "string",
          "name": "fileHash",
          "type": "string"
        },
        {
          "internalType": "address payable",
          "name": "uploader",
          "type": "address"
        }
      ],
      "stateMutability": "view",
      "type": "function"
    },
    {
      "inputs": [],
      "name": "incrementFileCountForTesting",
      "outputs": [],
      "stateMutability": "nonpayable",
      "type": "function"
    },
    {
      "inputs": [],
      "name": "name",
      "outputs": [
        {
          "internalType": "string",
          "name": "",
          "type": "string"
        }
      ],
      "stateMutability": "view",
      "type": "function"
    },
    {
      "inputs": [
        {
          "internalType": "string",
          "name": "_filePath",
          "type": "string"
        },
        {
          "internalType": "uint256",
          "name": "_fileSize",
          "type": "uint256"
        },
        {
          "internalType": "string",
          "name": "_fileType",
          "type": "string"
        },
        {
          "internalType": "string",
          "name": "_fileName",
          "type": "string"
        },
        {
          "internalType": "string",
          "name": "_fileHash",
          "type": "string"
        }
      ],
      "name": "uploadOutput",
      "outputs": [],
      "stateMutability": "nonpayable",
      "type": "function"
    }
  ],
  "bytecode": "0x60806040526040518060400160405280600981526020017f5065727373736973740000000000000000000000000000000000000000000000815250600090816200004a9190620002de565b5060006001553480156200005d57600080fd5b50620003c5565b600081519050919050565b7f4e487b7100000000000000000000000000000000000000000000000000000000600052604160045260246000fd5b7f4e487b7100000000000000000000000000000000000000000000000000000000600052602260045260246000fd5b60006002820490506001821680620000e657607f821691505b602082108103620000fc57620000fb6200009e565b5b50919050565b60008190508160005260206000209050919050565b60006020601f8301049050919050565b600082821b905092915050565b600060088302620001667fffffffffffffffffffffffffffffffffffffffffffffffffffffffffffffffff8262000127565b62000172868362000127565b95508019841693508086168417925050509392505050565b6000819050919050565b6000819050919050565b6000620001bf620001b9620001b3846200018a565b62000194565b6200018a565b9050919050565b6000819050919050565b620001db836200019e565b620001f3620001ea82620001c6565b84845462000134565b825550505050565b600090565b6200020a620001fb565b62000217818484620001d0565b505050565b5b818110156200023f576200023360008262000200565b6001810190506200021d565b5050565b601f8211156200028e57620002588162000102565b620002638462000117565b8101602085101562000273578190505b6200028b620002828562000117565b8301826200021c565b50505b505050565b600082821c905092915050565b6000620002b36000198460080262000293565b1980831691505092915050565b6000620002ce8383620002a0565b9150826002028217905092915050565b620002e98262000064565b67ffffffffffffffff8111156200030557620003046200006f565b5b620003118254620000cd565b6200031e82828562000243565b600060209050601f83116001811462000356576000841562000341578287015190505b6200034d8582620002c0565b865550620003bd565b601f198416620003668662000102565b60005b82811015620003905784890151825560018201915060208501945060208101905062000369565b86831015620003b05784890151620003ac601f891682620002a0565b8355505b6001600288020188555050505b505050505050565b610ea480620003d56000396000f3fe608060405234801561001057600080fd5b50600436106100625760003560e01c806306fdde03146100675780630d58664c14610085578063439535191461008f578063a20c9f87146100ad578063d75fe82b146100b7578063f4c714b4146100d3575b600080fd5b61006f610109565b60405161007c91906106cb565b60405180910390f35b61008d610197565b005b6100976101b1565b6040516100a49190610706565b60405180910390f35b6100b56101b7565b005b6100d160048036038101906100cc9190610896565b6101d1565b005b6100ed60048036038101906100e89190610981565b6103b9565b60405161010097969594939291906109ef565b60405180910390f35b6000805461011690610aa9565b80601f016020809104026020016040519081016040528092919081815260200182805461014290610aa9565b801561018f5780601f106101645761010080835404028352916020019161018f565b820191906000526020600020905b81548152906001019060200180831161017257829003601f168201915b505050505081565b600160008154809291906101aa90610b09565b9190505550565b60015481565b600160008154809291906101ca90610b32565b9190505550565b60008551116101df57600080fd5b60008351116101ed57600080fd5b60008251116101fb57600080fd5b600073ffffffffffffffffffffffffffffffffffffffff163373ffffffffffffffffffffffffffffffffffffffff160361023457600080fd5b6000841161024157600080fd5b6001600081548092919061025490610b32565b91905055506040518060e0016040528060015481526020018681526020018581526020018481526020018381526020018281526020013373ffffffffffffffffffffffffffffffffffffffff168152506002600060015481526020019081526020016000206000820151816000015560208201518160010190816102d89190610d26565b506040820151816002015560608201518160030190816102f89190610d26565b50608082015181600401908161030e9190610d26565b5060a08201518160050190816103249190610d26565b5060c08201518160060160006101000a81548173ffffffffffffffffffffffffffffffffffffffff021916908373ffffffffffffffffffffffffffffffffffffffff1602179055509050507ff69a2d8d6b9703170e6d92636c1f14e33e29147131e6ed5d6104810ad7da08de60015486868686336040516103aa96959493929190610df8565b60405180910390a15050505050565b60026020528060005260406000206000915090508060000154908060010180546103e290610aa9565b80601f016020809104026020016040519081016040528092919081815260200182805461040e90610aa9565b801561045b5780601f106104305761010080835404028352916020019161045b565b820191906000526020600020905b81548152906001019060200180831161043e57829003601f168201915b50505050509080600201549080600301805461047690610aa9565b80601f01602080910402602001604051908101604052809291908181526020018280546104a290610aa9565b80156104ef5780601f106104c4576101008083540402835291602001916104ef565b820191906000526020600020905b8154815290600101906020018083116104d257829003601f168201915b50505050509080600401805461050490610aa9565b80601f016020809104026020016040519081016040528092919081815260200182805461053090610aa9565b801561057d5780601f106105525761010080835404028352916020019161057d565b820191906000526020600020905b81548152906001019060200180831161056057829003601f168201915b50505050509080600501805461059290610aa9565b80601f01602080910402602001604051908101604052809291908181526020018280546105be90610aa9565b801561060b5780601f106105e05761010080835404028352916020019161060b565b820191906000526020600020905b8154815290600101906020018083116105ee57829003601f168201915b5050505050908060060160009054906101000a900473ffffffffffffffffffffffffffffffffffffffff16905087565b600081519050919050565b600082825260208201905092915050565b60005b8381101561067557808201518184015260208101905061065a565b60008484015250505050565b6000601f19601f8301169050919050565b600061069d8261063b565b6106a78185610646565b93506106b7818560208601610657565b6106c081610681565b840191505092915050565b600060208201905081810360008301526106e58184610692565b905092915050565b6000819050919050565b610700816106ed565b82525050565b600060208201905061071b60008301846106f7565b92915050565b6000604051905090565b600080fd5b600080fd5b600080fd5b600080fd5b7f4e487b7100000000000000000000000000000000000000000000000000000000600052604160045260246000fd5b61077782610681565b810181811067ffffffffffffffff821117156107965761079561073f565b5b80604052505050565b60006107a9610721565b90506107b5828261076e565b919050565b600067ffffffffffffffff8211156107d5576107d461073f565b5b6107de82610681565b9050602081019050919050565b82818337600083830152505050565b600061080d610808846107ba565b61079f565b9050828152602081018484840111156108295761082861073a565b5b6108348482856107eb565b509392505050565b600082601f83011261085157610850610735565b5b81356108618482602086016107fa565b91505092915050565b610873816106ed565b811461087e57600080fd5b50565b6000813590506108908161086a565b92915050565b600080600080600060a086880312156108b2576108b161072b565b5b600086013567ffffffffffffffff8111156108d0576108cf610730565b5b6108dc8882890161083c565b95505060206108ed88828901610881565b945050604086013567ffffffffffffffff81111561090e5761090d610730565b5b61091a8882890161083c565b935050606086013567ffffffffffffffff81111561093b5761093a610730565b5b6109478882890161083c565b925050608086013567ffffffffffffffff81111561096857610967610730565b5b6109748882890161083c565b9150509295509295909350565b6000602082840312156109975761099661072b565b5b60006109a584828501610881565b91505092915050565b600073ffffffffffffffffffffffffffffffffffffffff82169050919050565b60006109d9826109ae565b9050919050565b6109e9816109ce565b82525050565b600060e082019050610a04600083018a6106f7565b8181036020830152610a168189610692565b9050610a2560408301886106f7565b8181036060830152610a378187610692565b90508181036080830152610a4b8186610692565b905081810360a0830152610a5f8185610692565b9050610a6e60c08301846109e0565b98975050505050505050565b7f4e487b7100000000000000000000000000000000000000000000000000000000600052602260045260246000fd5b60006002820490506001821680610ac157607f821691505b602082108103610ad457610ad3610a7a565b5b50919050565b7f4e487b7100000000000000000000000000000000000000000000000000000000600052601160045260246000fd5b6000610b14826106ed565b915060008203610b2757610b26610ada565b5b600182039050919050565b6000610b3d826106ed565b91507fffffffffffffffffffffffffffffffffffffffffffffffffffffffffffffffff8203610b6f57610b6e610ada565b5b600182019050919050565b60008190508160005260206000209050919050565b60006020601f8301049050919050565b600082821b905092915050565b600060088302610bdc7fffffffffffffffffffffffffffffffffffffffffffffffffffffffffffffffff82610b9f565b610be68683610b9f565b95508019841693508086168417925050509392505050565b6000819050919050565b6000610c23610c1e610c19846106ed565b610bfe565b6106ed565b9050919050565b6000819050919050565b610c3d83610c08565b610c51610c4982610c2a565b848454610bac565b825550505050565b600090565b610c66610c59565b610c71818484610c34565b505050565b5b81811015610c9557610c8a600082610c5e565b600181019050610c77565b5050565b601f821115610cda57610cab81610b7a565b610cb484610b8f565b81016020851015610cc3578190505b610cd7610ccf85610b8f565b830182610c76565b50505b505050565b600082821c905092915050565b6000610cfd60001984600802610cdf565b1980831691505092915050565b6000610d168383610cec565b9150826002028217905092915050565b610d2f8261063b565b67ffffffffffffffff811115610d4857610d4761073f565b5b610d528254610aa9565b610d5d828285610c99565b600060209050601f831160018114610d905760008415610d7e578287015190505b610d888582610d0a565b865550610df0565b601f198416610d9e86610b7a565b60005b82811015610dc657848901518255600182019150602085019450602081019050610da1565b86831015610de35784890151610ddf601f891682610cec565b8355505b6001600288020188555050505b505050505050565b600060c082019050610e0d60008301896106f7565b8181036020830152610e1f8188610692565b9050610e2e60408301876106f7565b8181036060830152610e408186610692565b90508181036080830152610e548185610692565b9050610e6360a08301846109e0565b97965050505050505056fea264697066735822122014e90c917bd5d5f1251aa0c0bfdceefc91dd7fe1e705578da3f3427fb273f63e64736f6c63430008110033",
  "linkReferences": {},
  "deployedLinkReferences": {}
}