{
  "_format": "hh-sol-artifact-1",
  "contractName": "Journal",
  "sourceName": "contracts/Journal.sol",
  "abi": [
    {
      "anonymous": false,
      "inputs": [
        {
          "indexed": false,
          "internalType": "uint256",
          "name": "outputIdNumber",
          "type": "uint256"
        },
        {
          "indexed": false,
          "internalType": "string",
          "name": "outputPath",
          "type": "string"
        },
        {
          "indexed": false,
          "internalType": "string",
          "name": "outputHash",
          "type": "string"
        },
        {
          "indexed": false,
          "internalType": "bool",
          "name": "isPublished",
          "type": "bool"
        },
        {
          "indexed": false,
          "internalType": "address payable",
          "name": "uploader",
          "type": "address"
        }
      ],
      "name": "OutputUploaded",
      "type": "event"
    },
    {
      "inputs": [
        {
          "internalType": "uint256",
          "name": "_outputNumber",
          "type": "uint256"
        }
      ],
      "name": "getOutputByFileNumber",
      "outputs": [
        {
          "internalType": "uint256",
          "name": "",
          "type": "uint256"
        },
        {
          "internalType": "string",
          "name": "",
          "type": "string"
        },
        {
          "internalType": "string",
          "name": "",
          "type": "string"
        },
        {
          "internalType": "bool",
          "name": "",
          "type": "bool"
        },
        {
          "internalType": "address payable",
          "name": "",
          "type": "address"
        }
      ],
      "stateMutability": "view",
      "type": "function"
    },
    {
      "inputs": [
        {
          "internalType": "address",
          "name": "_reviewerAddress",
          "type": "address"
        }
      ],
      "name": "getOutputIdsByReviewerAddress",
      "outputs": [
        {
          "internalType": "uint256[]",
          "name": "",
          "type": "uint256[]"
        }
      ],
      "stateMutability": "view",
      "type": "function"
    },
    {
      "inputs": [
        {
          "internalType": "address",
          "name": "_uploaderAddress",
          "type": "address"
        }
      ],
      "name": "getOutputIdsByUploaderAddress",
      "outputs": [
        {
          "internalType": "uint256[]",
          "name": "",
          "type": "uint256[]"
        }
      ],
      "stateMutability": "view",
      "type": "function"
    },
    {
      "inputs": [
        {
          "internalType": "address",
          "name": "_callerAddress",
          "type": "address"
        },
        {
          "internalType": "uint256",
          "name": "_outputId",
          "type": "uint256"
        }
      ],
      "name": "isReviewer",
      "outputs": [
        {
          "internalType": "bool",
          "name": "",
          "type": "bool"
        }
      ],
      "stateMutability": "view",
      "type": "function"
    },
    {
      "inputs": [],
      "name": "name",
      "outputs": [
        {
          "internalType": "string",
          "name": "",
          "type": "string"
        }
      ],
      "stateMutability": "view",
      "type": "function"
    },
    {
      "inputs": [],
      "name": "outputCount",
      "outputs": [
        {
          "internalType": "uint256",
          "name": "",
          "type": "uint256"
        }
      ],
      "stateMutability": "view",
      "type": "function"
    },
    {
      "inputs": [
        {
          "internalType": "address",
          "name": "",
          "type": "address"
        },
        {
          "internalType": "uint256",
          "name": "",
          "type": "uint256"
        }
      ],
      "name": "outputIdsByReviewerAddress",
      "outputs": [
        {
          "internalType": "uint256",
          "name": "",
          "type": "uint256"
        }
      ],
      "stateMutability": "view",
      "type": "function"
    },
    {
      "inputs": [
        {
          "internalType": "address",
          "name": "",
          "type": "address"
        },
        {
          "internalType": "uint256",
          "name": "",
          "type": "uint256"
        }
      ],
      "name": "outputIdsByUploaderAddress",
      "outputs": [
        {
          "internalType": "uint256",
          "name": "",
          "type": "uint256"
        }
      ],
      "stateMutability": "view",
      "type": "function"
    },
    {
      "inputs": [
        {
          "internalType": "uint256",
          "name": "",
          "type": "uint256"
        }
      ],
      "name": "outputsByIdNumber",
      "outputs": [
        {
          "internalType": "uint256",
          "name": "outputIdNumber",
          "type": "uint256"
        },
        {
          "internalType": "string",
          "name": "outputPath",
          "type": "string"
        },
        {
          "internalType": "string",
          "name": "outputHash",
          "type": "string"
        },
        {
          "internalType": "bool",
          "name": "isPublished",
          "type": "bool"
        },
        {
          "internalType": "address payable",
          "name": "uploader",
          "type": "address"
        }
      ],
      "stateMutability": "view",
      "type": "function"
    },
    {
      "inputs": [
        {
          "internalType": "uint256",
          "name": "_outputId",
          "type": "uint256"
        },
        {
          "internalType": "bool",
          "name": "_isPublished",
          "type": "bool"
        }
      ],
      "name": "setIsPublished",
      "outputs": [],
      "stateMutability": "nonpayable",
      "type": "function"
    },
    {
      "inputs": [
        {
          "internalType": "uint256",
          "name": "_outputId",
          "type": "uint256"
        },
        {
          "internalType": "string",
          "name": "_outputPath",
          "type": "string"
        },
        {
          "internalType": "string",
          "name": "_outputHash",
          "type": "string"
        },
        {
          "internalType": "bool",
          "name": "_isPublished",
          "type": "bool"
        }
      ],
      "name": "updateOutput",
      "outputs": [],
      "stateMutability": "nonpayable",
      "type": "function"
    },
    {
      "inputs": [
        {
          "internalType": "string",
          "name": "_outputPath",
          "type": "string"
        },
        {
          "internalType": "string",
          "name": "_outputHash",
          "type": "string"
        },
        {
          "internalType": "bool",
          "name": "_isPublished",
          "type": "bool"
        },
        {
          "internalType": "address[]",
          "name": "_reviewers",
          "type": "address[]"
        }
      ],
      "name": "uploadOutput",
      "outputs": [],
      "stateMutability": "nonpayable",
      "type": "function"
    }
  ],
  "bytecode": "0x60806040526040518060400160405280601281526020017f426c6f636b636861696e204a6f75726e616c0000000000000000000000000000815250600090816200004a9190620002de565b5060006001553480156200005d57600080fd5b50620003c5565b600081519050919050565b7f4e487b7100000000000000000000000000000000000000000000000000000000600052604160045260246000fd5b7f4e487b7100000000000000000000000000000000000000000000000000000000600052602260045260246000fd5b60006002820490506001821680620000e657607f821691505b602082108103620000fc57620000fb6200009e565b5b50919050565b60008190508160005260206000209050919050565b60006020601f8301049050919050565b600082821b905092915050565b600060088302620001667fffffffffffffffffffffffffffffffffffffffffffffffffffffffffffffffff8262000127565b62000172868362000127565b95508019841693508086168417925050509392505050565b6000819050919050565b6000819050919050565b6000620001bf620001b9620001b3846200018a565b62000194565b6200018a565b9050919050565b6000819050919050565b620001db836200019e565b620001f3620001ea82620001c6565b84845462000134565b825550505050565b600090565b6200020a620001fb565b62000217818484620001d0565b505050565b5b818110156200023f576200023360008262000200565b6001810190506200021d565b5050565b601f8211156200028e57620002588162000102565b620002638462000117565b8101602085101562000273578190505b6200028b620002828562000117565b8301826200021c565b50505b505050565b600082821c905092915050565b6000620002b36000198460080262000293565b1980831691505092915050565b6000620002ce8383620002a0565b9150826002028217905092915050565b620002e98262000064565b67ffffffffffffffff8111156200030557620003046200006f565b5b620003118254620000cd565b6200031e82828562000243565b600060209050601f83116001811462000356576000841562000341578287015190505b6200034d8582620002c0565b865550620003bd565b601f198416620003668662000102565b60005b82811015620003905784890151825560018201915060208501945060208101905062000369565b86831015620003b05784890151620003ac601f891682620002a0565b8355505b6001600288020188555050505b505050505050565b611b3680620003d56000396000f3fe608060405234801561001057600080fd5b50600436106100b45760003560e01c8063340f39e511610071578063340f39e51461018d5780633e73cf39146101bd5780634001d40d146101ed578063a4811a5214610221578063dec37cdc14610251578063f7dce2e314610285576100b4565b806306fdde03146100b95780630ee2d331146100d757806314d3ff22146100f557806314f9b470146101115780632363701c146101415780632c4882e814610171575b600080fd5b6100c16102a1565b6040516100ce9190610f03565b60405180910390f35b6100df61032f565b6040516100ec9190610f3e565b60405180910390f35b61010f600480360381019061010a9190610fd1565b610335565b005b61012b6004803603810190610126919061106f565b61040b565b60405161013891906110be565b60405180910390f35b61015b600480360381019061015691906110d9565b6104f6565b60405161016891906111c4565b60405180910390f35b61018b600480360381019061018691906113e3565b610593565b005b6101a760048036038101906101a2919061106f565b6107b1565b6040516101b49190610f3e565b60405180910390f35b6101d760048036038101906101d291906110d9565b6107e2565b6040516101e491906111c4565b60405180910390f35b6102076004803603810190610202919061149e565b61087f565b6040516102189594939291906114ec565b60405180910390f35b61023b6004803603810190610236919061106f565b610b0b565b6040516102489190610f3e565b60405180910390f35b61026b6004803603810190610266919061149e565b610b3c565b60405161027c9594939291906114ec565b60405180910390f35b61029f600480360381019061029a919061154d565b610caf565b005b600080546102ae9061161b565b80601f01602080910402602001604051908101604052809291908181526020018280546102da9061161b565b80156103275780601f106102fc57610100808354040283529160200191610327565b820191906000526020600020905b81548152906001019060200180831161030a57829003601f168201915b505050505081565b60015481565b3373ffffffffffffffffffffffffffffffffffffffff166002600084815260200190815260200160002060030160019054906101000a900473ffffffffffffffffffffffffffffffffffffffff1673ffffffffffffffffffffffffffffffffffffffff16146103d9576040517f08c379a00000000000000000000000000000000000000000000000000000000081526004016103d0906116be565b60405180910390fd5b806002600084815260200190815260200160002060030160006101000a81548160ff0219169083151502179055505050565b600080600460008573ffffffffffffffffffffffffffffffffffffffff1673ffffffffffffffffffffffffffffffffffffffff16815260200190815260200160002080548060200260200160405190810160405280929190818152602001828054801561049757602002820191906000526020600020905b815481526020019060010190808311610483575b5050505050905060005b81518110156104e957838282815181106104be576104bd6116de565b5b6020026020010151036104d6576001925050506104f0565b80806104e19061173c565b9150506104a1565b5060009150505b92915050565b60606000600360008473ffffffffffffffffffffffffffffffffffffffff1673ffffffffffffffffffffffffffffffffffffffff16815260200190815260200160002080548060200260200160405190810160405280929190818152602001828054801561058357602002820191906000526020600020905b81548152602001906001019080831161056f575b5050505050905080915050919050565b60008451116105a157600080fd5b60008351116105af57600080fd5b600073ffffffffffffffffffffffffffffffffffffffff163373ffffffffffffffffffffffffffffffffffffffff16036105e857600080fd5b600160008154809291906105fb9061173c565b91905055506040518060a00160405280600154815260200185815260200184815260200183151581526020013373ffffffffffffffffffffffffffffffffffffffff168152506002600060015481526020019081526020016000206000820151816000015560208201518160010190816106759190611930565b50604082015181600201908161068b9190611930565b5060608201518160030160006101000a81548160ff02191690831515021790555060808201518160030160016101000a81548173ffffffffffffffffffffffffffffffffffffffff021916908373ffffffffffffffffffffffffffffffffffffffff160217905550905050600360003373ffffffffffffffffffffffffffffffffffffffff1673ffffffffffffffffffffffffffffffffffffffff168152602001908152602001600020600154908060018154018082558091505060019003906000526020600020016000909190919091505561076a81600154610dcf565b7f4ddf74a54a02075e1c18f0d03570ca08783e2baaef72e38c2daf611c9ae1fb28600154858585336040516107a39594939291906114ec565b60405180910390a150505050565b600460205281600052604060002081815481106107cd57600080fd5b90600052602060002001600091509150505481565b60606000600460008473ffffffffffffffffffffffffffffffffffffffff1673ffffffffffffffffffffffffffffffffffffffff16815260200190815260200160002080548060200260200160405190810160405280929190818152602001828054801561086f57602002820191906000526020600020905b81548152602001906001019080831161085b575b5050505050905080915050919050565b60006060806000806000600260008881526020019081526020016000206040518060a0016040529081600082015481526020016001820180546108c19061161b565b80601f01602080910402602001604051908101604052809291908181526020018280546108ed9061161b565b801561093a5780601f1061090f5761010080835404028352916020019161093a565b820191906000526020600020905b81548152906001019060200180831161091d57829003601f168201915b505050505081526020016002820180546109539061161b565b80601f016020809104026020016040519081016040528092919081815260200182805461097f9061161b565b80156109cc5780601f106109a1576101008083540402835291602001916109cc565b820191906000526020600020905b8154815290600101906020018083116109af57829003601f168201915b505050505081526020016003820160009054906101000a900460ff161515151581526020016003820160019054906101000a900473ffffffffffffffffffffffffffffffffffffffff1673ffffffffffffffffffffffffffffffffffffffff1673ffffffffffffffffffffffffffffffffffffffff1681525050905060011515816060015115151480610a8e57503373ffffffffffffffffffffffffffffffffffffffff16816080015173ffffffffffffffffffffffffffffffffffffffff16145b80610a9f5750610a9e338861040b565b5b610ade576040517f08c379a0000000000000000000000000000000000000000000000000000000008152600401610ad590611a4e565b60405180910390fd5b80600001518160200151826040015183606001518460800151955095509550955095505091939590929450565b60036020528160005260406000208181548110610b2757600080fd5b90600052602060002001600091509150505481565b6002602052806000526040600020600091509050806000015490806001018054610b659061161b565b80601f0160208091040260200160405190810160405280929190818152602001828054610b919061161b565b8015610bde5780601f10610bb357610100808354040283529160200191610bde565b820191906000526020600020905b815481529060010190602001808311610bc157829003601f168201915b505050505090806002018054610bf39061161b565b80601f0160208091040260200160405190810160405280929190818152602001828054610c1f9061161b565b8015610c6c5780601f10610c4157610100808354040283529160200191610c6c565b820191906000526020600020905b815481529060010190602001808311610c4f57829003601f168201915b5050505050908060030160009054906101000a900460ff16908060030160019054906101000a900473ffffffffffffffffffffffffffffffffffffffff16905085565b3373ffffffffffffffffffffffffffffffffffffffff166002600086815260200190815260200160002060030160019054906101000a900473ffffffffffffffffffffffffffffffffffffffff1673ffffffffffffffffffffffffffffffffffffffff1614610d53576040517f08c379a0000000000000000000000000000000000000000000000000000000008152600401610d4a90611ae0565b60405180910390fd5b82600260008681526020019081526020016000206001019081610d769190611930565b5081600260008681526020019081526020016000206002019081610d9a9190611930565b50806002600086815260200190815260200160002060030160006101000a81548160ff02191690831515021790555050505050565b60005b8251811015610e6e5760046000848381518110610df257610df16116de565b5b602002602001015173ffffffffffffffffffffffffffffffffffffffff1673ffffffffffffffffffffffffffffffffffffffff1681526020019081526020016000208290806001815401808255809150506001900390600052602060002001600090919091909150558080610e669061173c565b915050610dd2565b505050565b600081519050919050565b600082825260208201905092915050565b60005b83811015610ead578082015181840152602081019050610e92565b60008484015250505050565b6000601f19601f8301169050919050565b6000610ed582610e73565b610edf8185610e7e565b9350610eef818560208601610e8f565b610ef881610eb9565b840191505092915050565b60006020820190508181036000830152610f1d8184610eca565b905092915050565b6000819050919050565b610f3881610f25565b82525050565b6000602082019050610f536000830184610f2f565b92915050565b6000604051905090565b600080fd5b600080fd5b610f7681610f25565b8114610f8157600080fd5b50565b600081359050610f9381610f6d565b92915050565b60008115159050919050565b610fae81610f99565b8114610fb957600080fd5b50565b600081359050610fcb81610fa5565b92915050565b60008060408385031215610fe857610fe7610f63565b5b6000610ff685828601610f84565b925050602061100785828601610fbc565b9150509250929050565b600073ffffffffffffffffffffffffffffffffffffffff82169050919050565b600061103c82611011565b9050919050565b61104c81611031565b811461105757600080fd5b50565b60008135905061106981611043565b92915050565b6000806040838503121561108657611085610f63565b5b60006110948582860161105a565b92505060206110a585828601610f84565b9150509250929050565b6110b881610f99565b82525050565b60006020820190506110d360008301846110af565b92915050565b6000602082840312156110ef576110ee610f63565b5b60006110fd8482850161105a565b91505092915050565b600081519050919050565b600082825260208201905092915050565b6000819050602082019050919050565b61113b81610f25565b82525050565b600061114d8383611132565b60208301905092915050565b6000602082019050919050565b600061117182611106565b61117b8185611111565b935061118683611122565b8060005b838110156111b757815161119e8882611141565b97506111a983611159565b92505060018101905061118a565b5085935050505092915050565b600060208201905081810360008301526111de8184611166565b905092915050565b600080fd5b600080fd5b7f4e487b7100000000000000000000000000000000000000000000000000000000600052604160045260246000fd5b61122882610eb9565b810181811067ffffffffffffffff82111715611247576112466111f0565b5b80604052505050565b600061125a610f59565b9050611266828261121f565b919050565b600067ffffffffffffffff821115611286576112856111f0565b5b61128f82610eb9565b9050602081019050919050565b82818337600083830152505050565b60006112be6112b98461126b565b611250565b9050828152602081018484840111156112da576112d96111eb565b5b6112e584828561129c565b509392505050565b600082601f830112611302576113016111e6565b5b81356113128482602086016112ab565b91505092915050565b600067ffffffffffffffff821115611336576113356111f0565b5b602082029050602081019050919050565b600080fd5b600061135f61135a8461131b565b611250565b9050808382526020820190506020840283018581111561138257611381611347565b5b835b818110156113ab5780611397888261105a565b845260208401935050602081019050611384565b5050509392505050565b600082601f8301126113ca576113c96111e6565b5b81356113da84826020860161134c565b91505092915050565b600080600080608085870312156113fd576113fc610f63565b5b600085013567ffffffffffffffff81111561141b5761141a610f68565b5b611427878288016112ed565b945050602085013567ffffffffffffffff81111561144857611447610f68565b5b611454878288016112ed565b935050604061146587828801610fbc565b925050606085013567ffffffffffffffff81111561148657611485610f68565b5b611492878288016113b5565b91505092959194509250565b6000602082840312156114b4576114b3610f63565b5b60006114c284828501610f84565b91505092915050565b60006114d682611011565b9050919050565b6114e6816114cb565b82525050565b600060a0820190506115016000830188610f2f565b81810360208301526115138187610eca565b905081810360408301526115278186610eca565b905061153660608301856110af565b61154360808301846114dd565b9695505050505050565b6000806000806080858703121561156757611566610f63565b5b600061157587828801610f84565b945050602085013567ffffffffffffffff81111561159657611595610f68565b5b6115a2878288016112ed565b935050604085013567ffffffffffffffff8111156115c3576115c2610f68565b5b6115cf878288016112ed565b92505060606115e087828801610fbc565b91505092959194509250565b7f4e487b7100000000000000000000000000000000000000000000000000000000600052602260045260246000fd5b6000600282049050600182168061163357607f821691505b602082108103611646576116456115ec565b5b50919050565b7f4f6e6c79207468652075706c6f616465722063616e207075626c69736820746860008201527f65206f7574707574000000000000000000000000000000000000000000000000602082015250565b60006116a8602883610e7e565b91506116b38261164c565b604082019050919050565b600060208201905081810360008301526116d78161169b565b9050919050565b7f4e487b7100000000000000000000000000000000000000000000000000000000600052603260045260246000fd5b7f4e487b7100000000000000000000000000000000000000000000000000000000600052601160045260246000fd5b600061174782610f25565b91507fffffffffffffffffffffffffffffffffffffffffffffffffffffffffffffffff82036117795761177861170d565b5b600182019050919050565b60008190508160005260206000209050919050565b60006020601f8301049050919050565b600082821b905092915050565b6000600883026117e67fffffffffffffffffffffffffffffffffffffffffffffffffffffffffffffffff826117a9565b6117f086836117a9565b95508019841693508086168417925050509392505050565b6000819050919050565b600061182d61182861182384610f25565b611808565b610f25565b9050919050565b6000819050919050565b61184783611812565b61185b61185382611834565b8484546117b6565b825550505050565b600090565b611870611863565b61187b81848461183e565b505050565b5b8181101561189f57611894600082611868565b600181019050611881565b5050565b601f8211156118e4576118b581611784565b6118be84611799565b810160208510156118cd578190505b6118e16118d985611799565b830182611880565b50505b505050565b600082821c905092915050565b6000611907600019846008026118e9565b1980831691505092915050565b600061192083836118f6565b9150826002028217905092915050565b61193982610e73565b67ffffffffffffffff811115611952576119516111f0565b5b61195c825461161b565b6119678282856118a3565b600060209050601f83116001811461199a5760008415611988578287015190505b6119928582611914565b8655506119fa565b601f1984166119a886611784565b60005b828110156119d0578489015182556001820191506020850194506020810190506119ab565b868310156119ed57848901516119e9601f8916826118f6565b8355505b6001600288020188555050505b505050505050565b7f4f7574707574206973206e6f74207075626c6973686564000000000000000000600082015250565b6000611a38601783610e7e565b9150611a4382611a02565b602082019050919050565b60006020820190508181036000830152611a6781611a2b565b9050919050565b7f4f6e6c79207468652075706c6f616465722063616e207570646174652074686560008201527f206f757470757400000000000000000000000000000000000000000000000000602082015250565b6000611aca602783610e7e565b9150611ad582611a6e565b604082019050919050565b60006020820190508181036000830152611af981611abd565b905091905056fea264697066735822122005b5ce94f0a98a5839e54b049034141f50f2d60dde87f79532ea95cea1d9ce6d64736f6c63430008110033",
  "linkReferences": {},
  "deployedLinkReferences": {}
}