{
  "_format": "hh-sol-artifact-1",
  "contractName": "Journal",
  "sourceName": "contracts/Journal.sol",
  "abi": [
    {
      "anonymous": false,
      "inputs": [
        {
          "indexed": false,
          "internalType": "uint256",
          "name": "fileId",
          "type": "uint256"
        },
        {
          "indexed": false,
          "internalType": "string",
          "name": "filePath",
          "type": "string"
        },
        {
          "indexed": false,
          "internalType": "uint256",
          "name": "fileSize",
          "type": "uint256"
        },
        {
          "indexed": false,
          "internalType": "string",
          "name": "fileType",
          "type": "string"
        },
        {
          "indexed": false,
          "internalType": "string",
          "name": "fileName",
          "type": "string"
        },
        {
          "indexed": false,
          "internalType": "address payable",
          "name": "uploader",
          "type": "address"
        }
      ],
      "name": "OutputUploaded",
      "type": "event"
    },
    {
      "inputs": [],
      "name": "fileCount",
      "outputs": [
        {
          "internalType": "uint256",
          "name": "",
          "type": "uint256"
        }
      ],
      "stateMutability": "view",
      "type": "function"
    },
    {
      "inputs": [
        {
          "internalType": "uint256",
          "name": "",
          "type": "uint256"
        }
      ],
      "name": "files",
      "outputs": [
        {
          "internalType": "uint256",
          "name": "fileId",
          "type": "uint256"
        },
        {
          "internalType": "string",
          "name": "filePath",
          "type": "string"
        },
        {
          "internalType": "uint256",
          "name": "fileSize",
          "type": "uint256"
        },
        {
          "internalType": "string",
          "name": "fileType",
          "type": "string"
        },
        {
          "internalType": "string",
          "name": "fileName",
          "type": "string"
        },
        {
          "internalType": "string",
          "name": "fileHash",
          "type": "string"
        },
        {
          "internalType": "address payable",
          "name": "uploader",
          "type": "address"
        }
      ],
      "stateMutability": "view",
      "type": "function"
    },
    {
      "inputs": [],
      "name": "name",
      "outputs": [
        {
          "internalType": "string",
          "name": "",
          "type": "string"
        }
      ],
      "stateMutability": "view",
      "type": "function"
    },
    {
      "inputs": [
        {
          "internalType": "string",
          "name": "_filePath",
          "type": "string"
        },
        {
          "internalType": "uint256",
          "name": "_fileSize",
          "type": "uint256"
        },
        {
          "internalType": "string",
          "name": "_fileType",
          "type": "string"
        },
        {
          "internalType": "string",
          "name": "_fileName",
          "type": "string"
        },
        {
          "internalType": "string",
          "name": "_fileHash",
          "type": "string"
        }
      ],
      "name": "uploadOutput",
      "outputs": [],
      "stateMutability": "nonpayable",
      "type": "function"
    }
  ],
  "bytecode": "0x60806040526040518060400160405280600981526020017f5065727373736973740000000000000000000000000000000000000000000000815250600090816200004a9190620002de565b5060006001553480156200005d57600080fd5b50620003c5565b600081519050919050565b7f4e487b7100000000000000000000000000000000000000000000000000000000600052604160045260246000fd5b7f4e487b7100000000000000000000000000000000000000000000000000000000600052602260045260246000fd5b60006002820490506001821680620000e657607f821691505b602082108103620000fc57620000fb6200009e565b5b50919050565b60008190508160005260206000209050919050565b60006020601f8301049050919050565b600082821b905092915050565b600060088302620001667fffffffffffffffffffffffffffffffffffffffffffffffffffffffffffffffff8262000127565b62000172868362000127565b95508019841693508086168417925050509392505050565b6000819050919050565b6000819050919050565b6000620001bf620001b9620001b3846200018a565b62000194565b6200018a565b9050919050565b6000819050919050565b620001db836200019e565b620001f3620001ea82620001c6565b84845462000134565b825550505050565b600090565b6200020a620001fb565b62000217818484620001d0565b505050565b5b818110156200023f576200023360008262000200565b6001810190506200021d565b5050565b601f8211156200028e57620002588162000102565b620002638462000117565b8101602085101562000273578190505b6200028b620002828562000117565b8301826200021c565b50505b505050565b600082821c905092915050565b6000620002b36000198460080262000293565b1980831691505092915050565b6000620002ce8383620002a0565b9150826002028217905092915050565b620002e98262000064565b67ffffffffffffffff8111156200030557620003046200006f565b5b620003118254620000cd565b6200031e82828562000243565b600060209050601f83116001811462000356576000841562000341578287015190505b6200034d8582620002c0565b865550620003bd565b601f198416620003668662000102565b60005b82811015620003905784890151825560018201915060208501945060208101905062000369565b86831015620003b05784890151620003ac601f891682620002a0565b8355505b6001600288020188555050505b505050505050565b610e1d80620003d56000396000f3fe608060405234801561001057600080fd5b506004361061004c5760003560e01c806306fdde0314610051578063439535191461006f578063d75fe82b1461008d578063f4c714b4146100a9575b600080fd5b6100596100df565b604051610066919061066d565b60405180910390f35b61007761016d565b60405161008491906106a8565b60405180910390f35b6100a760048036038101906100a29190610838565b610173565b005b6100c360048036038101906100be9190610923565b61035b565b6040516100d69796959493929190610991565b60405180910390f35b600080546100ec90610a4b565b80601f016020809104026020016040519081016040528092919081815260200182805461011890610a4b565b80156101655780601f1061013a57610100808354040283529160200191610165565b820191906000526020600020905b81548152906001019060200180831161014857829003601f168201915b505050505081565b60015481565b600085511161018157600080fd5b600083511161018f57600080fd5b600082511161019d57600080fd5b600073ffffffffffffffffffffffffffffffffffffffff163373ffffffffffffffffffffffffffffffffffffffff16036101d657600080fd5b600084116101e357600080fd5b600160008154809291906101f690610aab565b91905055506040518060e0016040528060015481526020018681526020018581526020018481526020018381526020018281526020013373ffffffffffffffffffffffffffffffffffffffff1681525060026000600154815260200190815260200160002060008201518160000155602082015181600101908161027a9190610c9f565b5060408201518160020155606082015181600301908161029a9190610c9f565b5060808201518160040190816102b09190610c9f565b5060a08201518160050190816102c69190610c9f565b5060c08201518160060160006101000a81548173ffffffffffffffffffffffffffffffffffffffff021916908373ffffffffffffffffffffffffffffffffffffffff1602179055509050507ff69a2d8d6b9703170e6d92636c1f14e33e29147131e6ed5d6104810ad7da08de600154868686863360405161034c96959493929190610d71565b60405180910390a15050505050565b600260205280600052604060002060009150905080600001549080600101805461038490610a4b565b80601f01602080910402602001604051908101604052809291908181526020018280546103b090610a4b565b80156103fd5780601f106103d2576101008083540402835291602001916103fd565b820191906000526020600020905b8154815290600101906020018083116103e057829003601f168201915b50505050509080600201549080600301805461041890610a4b565b80601f016020809104026020016040519081016040528092919081815260200182805461044490610a4b565b80156104915780601f1061046657610100808354040283529160200191610491565b820191906000526020600020905b81548152906001019060200180831161047457829003601f168201915b5050505050908060040180546104a690610a4b565b80601f01602080910402602001604051908101604052809291908181526020018280546104d290610a4b565b801561051f5780601f106104f45761010080835404028352916020019161051f565b820191906000526020600020905b81548152906001019060200180831161050257829003601f168201915b50505050509080600501805461053490610a4b565b80601f016020809104026020016040519081016040528092919081815260200182805461056090610a4b565b80156105ad5780601f10610582576101008083540402835291602001916105ad565b820191906000526020600020905b81548152906001019060200180831161059057829003601f168201915b5050505050908060060160009054906101000a900473ffffffffffffffffffffffffffffffffffffffff16905087565b600081519050919050565b600082825260208201905092915050565b60005b838110156106175780820151818401526020810190506105fc565b60008484015250505050565b6000601f19601f8301169050919050565b600061063f826105dd565b61064981856105e8565b93506106598185602086016105f9565b61066281610623565b840191505092915050565b600060208201905081810360008301526106878184610634565b905092915050565b6000819050919050565b6106a28161068f565b82525050565b60006020820190506106bd6000830184610699565b92915050565b6000604051905090565b600080fd5b600080fd5b600080fd5b600080fd5b7f4e487b7100000000000000000000000000000000000000000000000000000000600052604160045260246000fd5b61071982610623565b810181811067ffffffffffffffff82111715610738576107376106e1565b5b80604052505050565b600061074b6106c3565b90506107578282610710565b919050565b600067ffffffffffffffff821115610777576107766106e1565b5b61078082610623565b9050602081019050919050565b82818337600083830152505050565b60006107af6107aa8461075c565b610741565b9050828152602081018484840111156107cb576107ca6106dc565b5b6107d684828561078d565b509392505050565b600082601f8301126107f3576107f26106d7565b5b813561080384826020860161079c565b91505092915050565b6108158161068f565b811461082057600080fd5b50565b6000813590506108328161080c565b92915050565b600080600080600060a08688031215610854576108536106cd565b5b600086013567ffffffffffffffff811115610872576108716106d2565b5b61087e888289016107de565b955050602061088f88828901610823565b945050604086013567ffffffffffffffff8111156108b0576108af6106d2565b5b6108bc888289016107de565b935050606086013567ffffffffffffffff8111156108dd576108dc6106d2565b5b6108e9888289016107de565b925050608086013567ffffffffffffffff81111561090a576109096106d2565b5b610916888289016107de565b9150509295509295909350565b600060208284031215610939576109386106cd565b5b600061094784828501610823565b91505092915050565b600073ffffffffffffffffffffffffffffffffffffffff82169050919050565b600061097b82610950565b9050919050565b61098b81610970565b82525050565b600060e0820190506109a6600083018a610699565b81810360208301526109b88189610634565b90506109c76040830188610699565b81810360608301526109d98187610634565b905081810360808301526109ed8186610634565b905081810360a0830152610a018185610634565b9050610a1060c0830184610982565b98975050505050505050565b7f4e487b7100000000000000000000000000000000000000000000000000000000600052602260045260246000fd5b60006002820490506001821680610a6357607f821691505b602082108103610a7657610a75610a1c565b5b50919050565b7f4e487b7100000000000000000000000000000000000000000000000000000000600052601160045260246000fd5b6000610ab68261068f565b91507fffffffffffffffffffffffffffffffffffffffffffffffffffffffffffffffff8203610ae857610ae7610a7c565b5b600182019050919050565b60008190508160005260206000209050919050565b60006020601f8301049050919050565b600082821b905092915050565b600060088302610b557fffffffffffffffffffffffffffffffffffffffffffffffffffffffffffffffff82610b18565b610b5f8683610b18565b95508019841693508086168417925050509392505050565b6000819050919050565b6000610b9c610b97610b928461068f565b610b77565b61068f565b9050919050565b6000819050919050565b610bb683610b81565b610bca610bc282610ba3565b848454610b25565b825550505050565b600090565b610bdf610bd2565b610bea818484610bad565b505050565b5b81811015610c0e57610c03600082610bd7565b600181019050610bf0565b5050565b601f821115610c5357610c2481610af3565b610c2d84610b08565b81016020851015610c3c578190505b610c50610c4885610b08565b830182610bef565b50505b505050565b600082821c905092915050565b6000610c7660001984600802610c58565b1980831691505092915050565b6000610c8f8383610c65565b9150826002028217905092915050565b610ca8826105dd565b67ffffffffffffffff811115610cc157610cc06106e1565b5b610ccb8254610a4b565b610cd6828285610c12565b600060209050601f831160018114610d095760008415610cf7578287015190505b610d018582610c83565b865550610d69565b601f198416610d1786610af3565b60005b82811015610d3f57848901518255600182019150602085019450602081019050610d1a565b86831015610d5c5784890151610d58601f891682610c65565b8355505b6001600288020188555050505b505050505050565b600060c082019050610d866000830189610699565b8181036020830152610d988188610634565b9050610da76040830187610699565b8181036060830152610db98186610634565b90508181036080830152610dcd8185610634565b9050610ddc60a0830184610982565b97965050505050505056fea264697066735822122029b1dd3c59d769584d76ea9c19ea1f6b94be738760236c3e502d1372b15da1ca64736f6c63430008110033",
  "linkReferences": {},
  "deployedLinkReferences": {}
}