{
  "_format": "hh-sol-artifact-1",
  "contractName": "Journal",
  "sourceName": "contracts/Journal.sol",
  "abi": [
    {
      "anonymous": false,
      "inputs": [
        {
          "indexed": false,
          "internalType": "uint256",
          "name": "outputIdNumber",
          "type": "uint256"
        },
        {
          "indexed": false,
          "internalType": "string",
          "name": "outputPath",
          "type": "string"
        },
        {
          "indexed": false,
          "internalType": "string",
          "name": "outputHash",
          "type": "string"
        },
        {
          "indexed": false,
          "internalType": "bool",
          "name": "isPublished",
          "type": "bool"
        },
        {
          "indexed": false,
          "internalType": "address payable",
          "name": "uploader",
          "type": "address"
        }
      ],
      "name": "OutputUploaded",
      "type": "event"
    },
    {
      "inputs": [
        {
          "internalType": "uint256",
          "name": "_outputNumber",
          "type": "uint256"
        }
      ],
      "name": "getOutputByFileNumber",
      "outputs": [
        {
          "internalType": "uint256",
          "name": "",
          "type": "uint256"
        },
        {
          "internalType": "string",
          "name": "",
          "type": "string"
        },
        {
          "internalType": "string",
          "name": "",
          "type": "string"
        },
        {
          "internalType": "bool",
          "name": "",
          "type": "bool"
        },
        {
          "internalType": "address payable",
          "name": "",
          "type": "address"
        },
        {
          "internalType": "address[]",
          "name": "",
          "type": "address[]"
        }
      ],
      "stateMutability": "view",
      "type": "function"
    },
    {
      "inputs": [
        {
          "internalType": "address",
          "name": "_reviewerAddress",
          "type": "address"
        }
      ],
      "name": "getOutputIdsByReviewerAddress",
      "outputs": [
        {
          "internalType": "uint256[]",
          "name": "",
          "type": "uint256[]"
        }
      ],
      "stateMutability": "view",
      "type": "function"
    },
    {
      "inputs": [
        {
          "internalType": "address",
          "name": "_uploaderAddress",
          "type": "address"
        }
      ],
      "name": "getOutputIdsByUploaderAddress",
      "outputs": [
        {
          "internalType": "uint256[]",
          "name": "",
          "type": "uint256[]"
        }
      ],
      "stateMutability": "view",
      "type": "function"
    },
    {
      "inputs": [
        {
          "internalType": "uint256",
          "name": "_outputId",
          "type": "uint256"
        }
      ],
      "name": "getReviewers",
      "outputs": [
        {
          "internalType": "address[]",
          "name": "",
          "type": "address[]"
        }
      ],
      "stateMutability": "view",
      "type": "function"
    },
    {
      "inputs": [
        {
          "internalType": "address",
          "name": "_callerAddress",
          "type": "address"
        },
        {
          "internalType": "uint256",
          "name": "_outputId",
          "type": "uint256"
        }
      ],
      "name": "isReviewer",
      "outputs": [
        {
          "internalType": "bool",
          "name": "",
          "type": "bool"
        }
      ],
      "stateMutability": "view",
      "type": "function"
    },
    {
      "inputs": [],
      "name": "name",
      "outputs": [
        {
          "internalType": "string",
          "name": "",
          "type": "string"
        }
      ],
      "stateMutability": "view",
      "type": "function"
    },
    {
      "inputs": [],
      "name": "outputCount",
      "outputs": [
        {
          "internalType": "uint256",
          "name": "",
          "type": "uint256"
        }
      ],
      "stateMutability": "view",
      "type": "function"
    },
    {
      "inputs": [
        {
          "internalType": "address",
          "name": "",
          "type": "address"
        },
        {
          "internalType": "uint256",
          "name": "",
          "type": "uint256"
        }
      ],
      "name": "outputIdsByReviewerAddress",
      "outputs": [
        {
          "internalType": "uint256",
          "name": "",
          "type": "uint256"
        }
      ],
      "stateMutability": "view",
      "type": "function"
    },
    {
      "inputs": [
        {
          "internalType": "address",
          "name": "",
          "type": "address"
        },
        {
          "internalType": "uint256",
          "name": "",
          "type": "uint256"
        }
      ],
      "name": "outputIdsByUploaderAddress",
      "outputs": [
        {
          "internalType": "uint256",
          "name": "",
          "type": "uint256"
        }
      ],
      "stateMutability": "view",
      "type": "function"
    },
    {
      "inputs": [
        {
          "internalType": "uint256",
          "name": "",
          "type": "uint256"
        }
      ],
      "name": "outputsByIdNumber",
      "outputs": [
        {
          "internalType": "uint256",
          "name": "outputIdNumber",
          "type": "uint256"
        },
        {
          "internalType": "string",
          "name": "outputPath",
          "type": "string"
        },
        {
          "internalType": "string",
          "name": "outputHash",
          "type": "string"
        },
        {
          "internalType": "bool",
          "name": "isPublished",
          "type": "bool"
        },
        {
          "internalType": "address payable",
          "name": "uploader",
          "type": "address"
        }
      ],
      "stateMutability": "view",
      "type": "function"
    },
    {
      "inputs": [
        {
          "internalType": "uint256",
          "name": "_outputId",
          "type": "uint256"
        },
        {
          "internalType": "bool",
          "name": "_isPublished",
          "type": "bool"
        }
      ],
      "name": "setIsPublished",
      "outputs": [],
      "stateMutability": "nonpayable",
      "type": "function"
    },
    {
      "inputs": [
        {
          "internalType": "uint256",
          "name": "_outputId",
          "type": "uint256"
        },
        {
          "internalType": "string",
          "name": "_outputPath",
          "type": "string"
        },
        {
          "internalType": "string",
          "name": "_outputHash",
          "type": "string"
        },
        {
          "internalType": "bool",
          "name": "_isPublished",
          "type": "bool"
        }
      ],
      "name": "updateOutput",
      "outputs": [],
      "stateMutability": "nonpayable",
      "type": "function"
    },
    {
      "inputs": [
        {
          "internalType": "string",
          "name": "_outputPath",
          "type": "string"
        },
        {
          "internalType": "string",
          "name": "_outputHash",
          "type": "string"
        },
        {
          "internalType": "bool",
          "name": "_isPublished",
          "type": "bool"
        },
        {
          "internalType": "address[]",
          "name": "_reviewers",
          "type": "address[]"
        }
      ],
      "name": "uploadOutput",
      "outputs": [],
      "stateMutability": "nonpayable",
      "type": "function"
    }
  ],
  "bytecode": "0x60806040526040518060400160405280601281526020017f426c6f636b636861696e204a6f75726e616c0000000000000000000000000000815250600090816200004a9190620002de565b5060006001553480156200005d57600080fd5b50620003c5565b600081519050919050565b7f4e487b7100000000000000000000000000000000000000000000000000000000600052604160045260246000fd5b7f4e487b7100000000000000000000000000000000000000000000000000000000600052602260045260246000fd5b60006002820490506001821680620000e657607f821691505b602082108103620000fc57620000fb6200009e565b5b50919050565b60008190508160005260206000209050919050565b60006020601f8301049050919050565b600082821b905092915050565b600060088302620001667fffffffffffffffffffffffffffffffffffffffffffffffffffffffffffffffff8262000127565b62000172868362000127565b95508019841693508086168417925050509392505050565b6000819050919050565b6000819050919050565b6000620001bf620001b9620001b3846200018a565b62000194565b6200018a565b9050919050565b6000819050919050565b620001db836200019e565b620001f3620001ea82620001c6565b84845462000134565b825550505050565b600090565b6200020a620001fb565b62000217818484620001d0565b505050565b5b818110156200023f576200023360008262000200565b6001810190506200021d565b5050565b601f8211156200028e57620002588162000102565b620002638462000117565b8101602085101562000273578190505b6200028b620002828562000117565b8301826200021c565b50505b505050565b600082821c905092915050565b6000620002b36000198460080262000293565b1980831691505092915050565b6000620002ce8383620002a0565b9150826002028217905092915050565b620002e98262000064565b67ffffffffffffffff8111156200030557620003046200006f565b5b620003118254620000cd565b6200031e82828562000243565b600060209050601f83116001811462000356576000841562000341578287015190505b6200034d8582620002c0565b865550620003bd565b601f198416620003668662000102565b60005b82811015620003905784890151825560018201915060208501945060208101905062000369565b86831015620003b05784890151620003ac601f891682620002a0565b8355505b6001600288020188555050505b505050505050565b61212780620003d56000396000f3fe608060405234801561001057600080fd5b50600436106100cf5760003560e01c80632c4882e81161008c5780634001d40d116100665780634001d40d14610238578063a4811a521461026d578063dec37cdc1461029d578063f7dce2e3146102d1576100cf565b80632c4882e8146101bc578063340f39e5146101d85780633e73cf3914610208576100cf565b806302afb4b4146100d457806306fdde03146101045780630ee2d3311461012257806314d3ff221461014057806314f9b4701461015c5780632363701c1461018c575b600080fd5b6100ee60048036038101906100e9919061131a565b6102ed565b6040516100fb9190611437565b60405180910390f35b61010c610391565b60405161011991906114e9565b60405180910390f35b61012a61041f565b604051610137919061151a565b60405180910390f35b61015a6004803603810190610155919061156d565b610425565b005b610176600480360381019061017191906115d9565b6104fb565b6040516101839190611628565b60405180910390f35b6101a660048036038101906101a19190611643565b6105e6565b6040516101b3919061172e565b60405180910390f35b6101d660048036038101906101d1919061194d565b610683565b005b6101f260048036038101906101ed91906115d9565b6108c4565b6040516101ff919061151a565b60405180910390f35b610222600480360381019061021d9190611643565b6108f5565b60405161022f919061172e565b60405180910390f35b610252600480360381019061024d919061131a565b610992565b60405161026496959493929190611a29565b60405180910390f35b610287600480360381019061028291906115d9565b610cbf565b604051610294919061151a565b60405180910390f35b6102b760048036038101906102b2919061131a565b610cf0565b6040516102c8959493929190611a9f565b60405180910390f35b6102eb60048036038101906102e69190611b00565b610e63565b005b60606002600083815260200190815260200160002060040180548060200260200160405190810160405280929190818152602001828054801561038557602002820191906000526020600020905b8160009054906101000a900473ffffffffffffffffffffffffffffffffffffffff1673ffffffffffffffffffffffffffffffffffffffff168152602001906001019080831161033b575b50505050509050919050565b6000805461039e90611bce565b80601f01602080910402602001604051908101604052809291908181526020018280546103ca90611bce565b80156104175780601f106103ec57610100808354040283529160200191610417565b820191906000526020600020905b8154815290600101906020018083116103fa57829003601f168201915b505050505081565b60015481565b3373ffffffffffffffffffffffffffffffffffffffff166002600084815260200190815260200160002060030160019054906101000a900473ffffffffffffffffffffffffffffffffffffffff1673ffffffffffffffffffffffffffffffffffffffff16146104c9576040517f08c379a00000000000000000000000000000000000000000000000000000000081526004016104c090611c71565b60405180910390fd5b806002600084815260200190815260200160002060030160006101000a81548160ff0219169083151502179055505050565b600080600460008573ffffffffffffffffffffffffffffffffffffffff1673ffffffffffffffffffffffffffffffffffffffff16815260200190815260200160002080548060200260200160405190810160405280929190818152602001828054801561058757602002820191906000526020600020905b815481526020019060010190808311610573575b5050505050905060005b81518110156105d957838282815181106105ae576105ad611c91565b5b6020026020010151036105c6576001925050506105e0565b80806105d190611cef565b915050610591565b5060009150505b92915050565b60606000600360008473ffffffffffffffffffffffffffffffffffffffff1673ffffffffffffffffffffffffffffffffffffffff16815260200190815260200160002080548060200260200160405190810160405280929190818152602001828054801561067357602002820191906000526020600020905b81548152602001906001019080831161065f575b5050505050905080915050919050565b600084511161069157600080fd5b600083511161069f57600080fd5b600073ffffffffffffffffffffffffffffffffffffffff163373ffffffffffffffffffffffffffffffffffffffff16036106d857600080fd5b600160008154809291906106eb90611cef565b91905055506040518060c00160405280600154815260200185815260200184815260200183151581526020013373ffffffffffffffffffffffffffffffffffffffff1681526020018281525060026000600154815260200190815260200160002060008201518160000155602082015181600101908161076b9190611ee3565b5060408201518160020190816107819190611ee3565b5060608201518160030160006101000a81548160ff02191690831515021790555060808201518160030160016101000a81548173ffffffffffffffffffffffffffffffffffffffff021916908373ffffffffffffffffffffffffffffffffffffffff16021790555060a0820151816004019080519060200190610805929190611229565b50905050600360003373ffffffffffffffffffffffffffffffffffffffff1673ffffffffffffffffffffffffffffffffffffffff168152602001908152602001600020600154908060018154018082558091505060019003906000526020600020016000909190919091505561087d81600154610f83565b7f4ddf74a54a02075e1c18f0d03570ca08783e2baaef72e38c2daf611c9ae1fb28600154858585336040516108b6959493929190611a9f565b60405180910390a150505050565b600460205281600052604060002081815481106108e057600080fd5b90600052602060002001600091509150505481565b60606000600460008473ffffffffffffffffffffffffffffffffffffffff1673ffffffffffffffffffffffffffffffffffffffff16815260200190815260200160002080548060200260200160405190810160405280929190818152602001828054801561098257602002820191906000526020600020905b81548152602001906001019080831161096e575b5050505050905080915050919050565b600060608060008060606000600260008981526020019081526020016000206040518060c0016040529081600082015481526020016001820180546109d690611bce565b80601f0160208091040260200160405190810160405280929190818152602001828054610a0290611bce565b8015610a4f5780601f10610a2457610100808354040283529160200191610a4f565b820191906000526020600020905b815481529060010190602001808311610a3257829003601f168201915b50505050508152602001600282018054610a6890611bce565b80601f0160208091040260200160405190810160405280929190818152602001828054610a9490611bce565b8015610ae15780601f10610ab657610100808354040283529160200191610ae1565b820191906000526020600020905b815481529060010190602001808311610ac457829003601f168201915b505050505081526020016003820160009054906101000a900460ff161515151581526020016003820160019054906101000a900473ffffffffffffffffffffffffffffffffffffffff1673ffffffffffffffffffffffffffffffffffffffff1673ffffffffffffffffffffffffffffffffffffffff16815260200160048201805480602002602001604051908101604052809291908181526020018280548015610be057602002820191906000526020600020905b8160009054906101000a900473ffffffffffffffffffffffffffffffffffffffff1673ffffffffffffffffffffffffffffffffffffffff1681526020019060010190808311610b96575b505050505081525050905060011515816060015115151480610c3157503373ffffffffffffffffffffffffffffffffffffffff16816080015173ffffffffffffffffffffffffffffffffffffffff16145b80610c425750610c4133896104fb565b5b610c81576040517f08c379a0000000000000000000000000000000000000000000000000000000008152600401610c7890612001565b60405180910390fd5b6000610c8c896102ed565b90508160000151826020015183604001518460600151856080015185975097509750975097509750505091939550919395565b60036020528160005260406000208181548110610cdb57600080fd5b90600052602060002001600091509150505481565b6002602052806000526040600020600091509050806000015490806001018054610d1990611bce565b80601f0160208091040260200160405190810160405280929190818152602001828054610d4590611bce565b8015610d925780601f10610d6757610100808354040283529160200191610d92565b820191906000526020600020905b815481529060010190602001808311610d7557829003601f168201915b505050505090806002018054610da790611bce565b80601f0160208091040260200160405190810160405280929190818152602001828054610dd390611bce565b8015610e205780601f10610df557610100808354040283529160200191610e20565b820191906000526020600020905b815481529060010190602001808311610e0357829003601f168201915b5050505050908060030160009054906101000a900460ff16908060030160019054906101000a900473ffffffffffffffffffffffffffffffffffffffff16905085565b3373ffffffffffffffffffffffffffffffffffffffff166002600086815260200190815260200160002060030160019054906101000a900473ffffffffffffffffffffffffffffffffffffffff1673ffffffffffffffffffffffffffffffffffffffff1614610f07576040517f08c379a0000000000000000000000000000000000000000000000000000000008152600401610efe90612093565b60405180910390fd5b82600260008681526020019081526020016000206001019081610f2a9190611ee3565b5081600260008681526020019081526020016000206002019081610f4e9190611ee3565b50806002600086815260200190815260200160002060030160006101000a81548160ff02191690831515021790555050505050565b60005b825181101561115c5760046000848381518110610fa657610fa5611c91565b5b602002602001015173ffffffffffffffffffffffffffffffffffffffff1673ffffffffffffffffffffffffffffffffffffffff16815260200190815260200160002082908060018154018082558091505060019003906000526020600020016000909190919091505560006004600085848151811061102857611027611c91565b5b602002602001015173ffffffffffffffffffffffffffffffffffffffff1673ffffffffffffffffffffffffffffffffffffffff1681526020019081526020016000208054806020026020016040519081016040528092919081815260200182805480156110b457602002820191906000526020600020905b8154815260200190600101908083116110a0575b50505050509050600181511115611148576000816000815181106110db576110da611c91565b5b602002602001015190506000826001815181106110fb576110fa611c91565b5b602002602001015190506111456040518060400160405280600281526020017f68690000000000000000000000000000000000000000000000000000000000008152508383611161565b50505b50808061115490611cef565b915050610f86565b505050565b6111fb838383604051602401611179939291906120b3565b6040516020818303038152906040527fca47c4eb000000000000000000000000000000000000000000000000000000007bffffffffffffffffffffffffffffffffffffffffffffffffffffffff19166020820180517bffffffffffffffffffffffffffffffffffffffffffffffffffffffff8381831617835250505050611200565b505050565b60008151905060006a636f6e736f6c652e6c6f679050602083016000808483855afa5050505050565b8280548282559060005260206000209081019282156112a2579160200282015b828111156112a15782518260006101000a81548173ffffffffffffffffffffffffffffffffffffffff021916908373ffffffffffffffffffffffffffffffffffffffff16021790555091602001919060010190611249565b5b5090506112af91906112b3565b5090565b5b808211156112cc5760008160009055506001016112b4565b5090565b6000604051905090565b600080fd5b600080fd5b6000819050919050565b6112f7816112e4565b811461130257600080fd5b50565b600081359050611314816112ee565b92915050565b6000602082840312156113305761132f6112da565b5b600061133e84828501611305565b91505092915050565b600081519050919050565b600082825260208201905092915050565b6000819050602082019050919050565b600073ffffffffffffffffffffffffffffffffffffffff82169050919050565b600061139e82611373565b9050919050565b6113ae81611393565b82525050565b60006113c083836113a5565b60208301905092915050565b6000602082019050919050565b60006113e482611347565b6113ee8185611352565b93506113f983611363565b8060005b8381101561142a57815161141188826113b4565b975061141c836113cc565b9250506001810190506113fd565b5085935050505092915050565b6000602082019050818103600083015261145181846113d9565b905092915050565b600081519050919050565b600082825260208201905092915050565b60005b83811015611493578082015181840152602081019050611478565b60008484015250505050565b6000601f19601f8301169050919050565b60006114bb82611459565b6114c58185611464565b93506114d5818560208601611475565b6114de8161149f565b840191505092915050565b6000602082019050818103600083015261150381846114b0565b905092915050565b611514816112e4565b82525050565b600060208201905061152f600083018461150b565b92915050565b60008115159050919050565b61154a81611535565b811461155557600080fd5b50565b60008135905061156781611541565b92915050565b60008060408385031215611584576115836112da565b5b600061159285828601611305565b92505060206115a385828601611558565b9150509250929050565b6115b681611393565b81146115c157600080fd5b50565b6000813590506115d3816115ad565b92915050565b600080604083850312156115f0576115ef6112da565b5b60006115fe858286016115c4565b925050602061160f85828601611305565b9150509250929050565b61162281611535565b82525050565b600060208201905061163d6000830184611619565b92915050565b600060208284031215611659576116586112da565b5b6000611667848285016115c4565b91505092915050565b600081519050919050565b600082825260208201905092915050565b6000819050602082019050919050565b6116a5816112e4565b82525050565b60006116b7838361169c565b60208301905092915050565b6000602082019050919050565b60006116db82611670565b6116e5818561167b565b93506116f08361168c565b8060005b8381101561172157815161170888826116ab565b9750611713836116c3565b9250506001810190506116f4565b5085935050505092915050565b6000602082019050818103600083015261174881846116d0565b905092915050565b600080fd5b600080fd5b7f4e487b7100000000000000000000000000000000000000000000000000000000600052604160045260246000fd5b6117928261149f565b810181811067ffffffffffffffff821117156117b1576117b061175a565b5b80604052505050565b60006117c46112d0565b90506117d08282611789565b919050565b600067ffffffffffffffff8211156117f0576117ef61175a565b5b6117f98261149f565b9050602081019050919050565b82818337600083830152505050565b6000611828611823846117d5565b6117ba565b90508281526020810184848401111561184457611843611755565b5b61184f848285611806565b509392505050565b600082601f83011261186c5761186b611750565b5b813561187c848260208601611815565b91505092915050565b600067ffffffffffffffff8211156118a05761189f61175a565b5b602082029050602081019050919050565b600080fd5b60006118c96118c484611885565b6117ba565b905080838252602082019050602084028301858111156118ec576118eb6118b1565b5b835b81811015611915578061190188826115c4565b8452602084019350506020810190506118ee565b5050509392505050565b600082601f83011261193457611933611750565b5b81356119448482602086016118b6565b91505092915050565b60008060008060808587031215611967576119666112da565b5b600085013567ffffffffffffffff811115611985576119846112df565b5b61199187828801611857565b945050602085013567ffffffffffffffff8111156119b2576119b16112df565b5b6119be87828801611857565b93505060406119cf87828801611558565b925050606085013567ffffffffffffffff8111156119f0576119ef6112df565b5b6119fc8782880161191f565b91505092959194509250565b6000611a1382611373565b9050919050565b611a2381611a08565b82525050565b600060c082019050611a3e600083018961150b565b8181036020830152611a5081886114b0565b90508181036040830152611a6481876114b0565b9050611a736060830186611619565b611a806080830185611a1a565b81810360a0830152611a9281846113d9565b9050979650505050505050565b600060a082019050611ab4600083018861150b565b8181036020830152611ac681876114b0565b90508181036040830152611ada81866114b0565b9050611ae96060830185611619565b611af66080830184611a1a565b9695505050505050565b60008060008060808587031215611b1a57611b196112da565b5b6000611b2887828801611305565b945050602085013567ffffffffffffffff811115611b4957611b486112df565b5b611b5587828801611857565b935050604085013567ffffffffffffffff811115611b7657611b756112df565b5b611b8287828801611857565b9250506060611b9387828801611558565b91505092959194509250565b7f4e487b7100000000000000000000000000000000000000000000000000000000600052602260045260246000fd5b60006002820490506001821680611be657607f821691505b602082108103611bf957611bf8611b9f565b5b50919050565b7f4f6e6c79207468652075706c6f616465722063616e207075626c69736820746860008201527f65206f7574707574000000000000000000000000000000000000000000000000602082015250565b6000611c5b602883611464565b9150611c6682611bff565b604082019050919050565b60006020820190508181036000830152611c8a81611c4e565b9050919050565b7f4e487b7100000000000000000000000000000000000000000000000000000000600052603260045260246000fd5b7f4e487b7100000000000000000000000000000000000000000000000000000000600052601160045260246000fd5b6000611cfa826112e4565b91507fffffffffffffffffffffffffffffffffffffffffffffffffffffffffffffffff8203611d2c57611d2b611cc0565b5b600182019050919050565b60008190508160005260206000209050919050565b60006020601f8301049050919050565b600082821b905092915050565b600060088302611d997fffffffffffffffffffffffffffffffffffffffffffffffffffffffffffffffff82611d5c565b611da38683611d5c565b95508019841693508086168417925050509392505050565b6000819050919050565b6000611de0611ddb611dd6846112e4565b611dbb565b6112e4565b9050919050565b6000819050919050565b611dfa83611dc5565b611e0e611e0682611de7565b848454611d69565b825550505050565b600090565b611e23611e16565b611e2e818484611df1565b505050565b5b81811015611e5257611e47600082611e1b565b600181019050611e34565b5050565b601f821115611e9757611e6881611d37565b611e7184611d4c565b81016020851015611e80578190505b611e94611e8c85611d4c565b830182611e33565b50505b505050565b600082821c905092915050565b6000611eba60001984600802611e9c565b1980831691505092915050565b6000611ed38383611ea9565b9150826002028217905092915050565b611eec82611459565b67ffffffffffffffff811115611f0557611f0461175a565b5b611f0f8254611bce565b611f1a828285611e56565b600060209050601f831160018114611f4d5760008415611f3b578287015190505b611f458582611ec7565b865550611fad565b601f198416611f5b86611d37565b60005b82811015611f8357848901518255600182019150602085019450602081019050611f5e565b86831015611fa05784890151611f9c601f891682611ea9565b8355505b6001600288020188555050505b505050505050565b7f4f7574707574206973206e6f74207075626c6973686564000000000000000000600082015250565b6000611feb601783611464565b9150611ff682611fb5565b602082019050919050565b6000602082019050818103600083015261201a81611fde565b9050919050565b7f4f6e6c79207468652075706c6f616465722063616e207570646174652074686560008201527f206f757470757400000000000000000000000000000000000000000000000000602082015250565b600061207d602783611464565b915061208882612021565b604082019050919050565b600060208201905081810360008301526120ac81612070565b9050919050565b600060608201905081810360008301526120cd81866114b0565b90506120dc602083018561150b565b6120e9604083018461150b565b94935050505056fea2646970667358221220a00168baa803ef2f75856dce9dffca51b6552a7842160894e92d96fdf42a547764736f6c63430008110033",
  "linkReferences": {},
  "deployedLinkReferences": {}
}