{
  "_format": "hh-sol-artifact-1",
  "contractName": "Journal",
  "sourceName": "contracts/Journal.sol",
  "abi": [
    {
      "anonymous": false,
      "inputs": [
        {
          "indexed": false,
          "internalType": "uint256",
          "name": "fileId",
          "type": "uint256"
        },
        {
          "indexed": false,
          "internalType": "string",
          "name": "filePath",
          "type": "string"
        },
        {
          "indexed": false,
          "internalType": "uint256",
          "name": "fileSize",
          "type": "uint256"
        },
        {
          "indexed": false,
          "internalType": "string",
          "name": "fileType",
          "type": "string"
        },
        {
          "indexed": false,
          "internalType": "string",
          "name": "fileName",
          "type": "string"
        },
        {
          "indexed": false,
          "internalType": "address payable",
          "name": "uploader",
          "type": "address"
        }
      ],
      "name": "OutputUploaded",
      "type": "event"
    },
    {
      "inputs": [],
      "name": "decrementFileCountForTesting",
      "outputs": [],
      "stateMutability": "nonpayable",
      "type": "function"
    },
    {
      "inputs": [],
      "name": "fileCount",
      "outputs": [
        {
          "internalType": "uint256",
          "name": "",
          "type": "uint256"
        }
      ],
      "stateMutability": "view",
      "type": "function"
    },
    {
      "inputs": [
        {
          "internalType": "uint256",
          "name": "",
          "type": "uint256"
        }
      ],
      "name": "files",
      "outputs": [
        {
          "internalType": "uint256",
          "name": "fileId",
          "type": "uint256"
        },
        {
          "internalType": "string",
          "name": "filePath",
          "type": "string"
        },
        {
          "internalType": "uint256",
          "name": "fileSize",
          "type": "uint256"
        },
        {
          "internalType": "string",
          "name": "fileType",
          "type": "string"
        },
        {
          "internalType": "string",
          "name": "fileName",
          "type": "string"
        },
        {
          "internalType": "string",
          "name": "fileHash",
          "type": "string"
        },
        {
          "internalType": "address payable",
          "name": "uploader",
          "type": "address"
        }
      ],
      "stateMutability": "view",
      "type": "function"
    },
    {
      "inputs": [
        {
          "internalType": "uint256",
          "name": "_fileNumber",
          "type": "uint256"
        }
      ],
      "name": "getOutputByFileNumber",
      "outputs": [
        {
          "internalType": "uint256",
          "name": "",
          "type": "uint256"
        },
        {
          "internalType": "string",
          "name": "",
          "type": "string"
        },
        {
          "internalType": "uint256",
          "name": "",
          "type": "uint256"
        },
        {
          "internalType": "string",
          "name": "",
          "type": "string"
        },
        {
          "internalType": "string",
          "name": "",
          "type": "string"
        },
        {
          "internalType": "string",
          "name": "",
          "type": "string"
        },
        {
          "internalType": "address payable",
          "name": "",
          "type": "address"
        }
      ],
      "stateMutability": "view",
      "type": "function"
    },
    {
      "inputs": [],
      "name": "incrementFileCountForTesting",
      "outputs": [],
      "stateMutability": "nonpayable",
      "type": "function"
    },
    {
      "inputs": [],
      "name": "name",
      "outputs": [
        {
          "internalType": "string",
          "name": "",
          "type": "string"
        }
      ],
      "stateMutability": "view",
      "type": "function"
    },
    {
      "inputs": [
        {
          "internalType": "string",
          "name": "_filePath",
          "type": "string"
        },
        {
          "internalType": "uint256",
          "name": "_fileSize",
          "type": "uint256"
        },
        {
          "internalType": "string",
          "name": "_fileType",
          "type": "string"
        },
        {
          "internalType": "string",
          "name": "_fileName",
          "type": "string"
        },
        {
          "internalType": "string",
          "name": "_fileHash",
          "type": "string"
        }
      ],
      "name": "uploadOutput",
      "outputs": [],
      "stateMutability": "nonpayable",
      "type": "function"
    }
  ],
  "bytecode": "0x60806040526040518060400160405280601281526020017f426c6f636b636861696e204a6f75726e616c0000000000000000000000000000815250600090816200004a9190620002de565b5060006001553480156200005d57600080fd5b50620003c5565b600081519050919050565b7f4e487b7100000000000000000000000000000000000000000000000000000000600052604160045260246000fd5b7f4e487b7100000000000000000000000000000000000000000000000000000000600052602260045260246000fd5b60006002820490506001821680620000e657607f821691505b602082108103620000fc57620000fb6200009e565b5b50919050565b60008190508160005260206000209050919050565b60006020601f8301049050919050565b600082821b905092915050565b600060088302620001667fffffffffffffffffffffffffffffffffffffffffffffffffffffffffffffffff8262000127565b62000172868362000127565b95508019841693508086168417925050509392505050565b6000819050919050565b6000819050919050565b6000620001bf620001b9620001b3846200018a565b62000194565b6200018a565b9050919050565b6000819050919050565b620001db836200019e565b620001f3620001ea82620001c6565b84845462000134565b825550505050565b600090565b6200020a620001fb565b62000217818484620001d0565b505050565b5b818110156200023f576200023360008262000200565b6001810190506200021d565b5050565b601f8211156200028e57620002588162000102565b620002638462000117565b8101602085101562000273578190505b6200028b620002828562000117565b8301826200021c565b50505b505050565b600082821c905092915050565b6000620002b36000198460080262000293565b1980831691505092915050565b6000620002ce8383620002a0565b9150826002028217905092915050565b620002e98262000064565b67ffffffffffffffff8111156200030557620003046200006f565b5b620003118254620000cd565b6200031e82828562000243565b600060209050601f83116001811462000356576000841562000341578287015190505b6200034d8582620002c0565b865550620003bd565b601f198416620003668662000102565b60005b82811015620003905784890151825560018201915060208501945060208101905062000369565b86831015620003b05784890151620003ac601f891682620002a0565b8355505b6001600288020188555050505b505050505050565b61121280620003d56000396000f3fe608060405234801561001057600080fd5b506004361061007d5760003560e01c8063439535191161005b57806343953519146100e0578063a20c9f87146100fe578063d75fe82b14610108578063f4c714b4146101245761007d565b806306fdde03146100825780630d58664c146100a05780634001d40d146100aa575b600080fd5b61008a61015a565b6040516100979190610a39565b60405180910390f35b6100a86101e8565b005b6100c460048036038101906100bf9190610aa5565b610202565b6040516100d79796959493929190610b22565b60405180910390f35b6100e861051f565b6040516100f59190610bad565b60405180910390f35b610106610525565b005b610122600480360381019061011d9190610cfd565b61053f565b005b61013e60048036038101906101399190610aa5565b610727565b6040516101519796959493929190610b22565b60405180910390f35b6000805461016790610e17565b80601f016020809104026020016040519081016040528092919081815260200182805461019390610e17565b80156101e05780601f106101b5576101008083540402835291602001916101e0565b820191906000526020600020905b8154815290600101906020018083116101c357829003601f168201915b505050505081565b600160008154809291906101fb90610e77565b9190505550565b6000606060006060806060600080600260008a81526020019081526020016000206040518060e00160405290816000820154815260200160018201805461024890610e17565b80601f016020809104026020016040519081016040528092919081815260200182805461027490610e17565b80156102c15780601f10610296576101008083540402835291602001916102c1565b820191906000526020600020905b8154815290600101906020018083116102a457829003601f168201915b50505050508152602001600282015481526020016003820180546102e490610e17565b80601f016020809104026020016040519081016040528092919081815260200182805461031090610e17565b801561035d5780601f106103325761010080835404028352916020019161035d565b820191906000526020600020905b81548152906001019060200180831161034057829003601f168201915b5050505050815260200160048201805461037690610e17565b80601f01602080910402602001604051908101604052809291908181526020018280546103a290610e17565b80156103ef5780601f106103c4576101008083540402835291602001916103ef565b820191906000526020600020905b8154815290600101906020018083116103d257829003601f168201915b5050505050815260200160058201805461040890610e17565b80601f016020809104026020016040519081016040528092919081815260200182805461043490610e17565b80156104815780601f1061045657610100808354040283529160200191610481565b820191906000526020600020905b81548152906001019060200180831161046457829003601f168201915b505050505081526020016006820160009054906101000a900473ffffffffffffffffffffffffffffffffffffffff1673ffffffffffffffffffffffffffffffffffffffff1673ffffffffffffffffffffffffffffffffffffffff16815250509050806000015181602001518260400151836060015184608001518560a001518660c00151975097509750975097509750975050919395979092949650565b60015481565b6001600081548092919061053890610ea0565b9190505550565b600085511161054d57600080fd5b600083511161055b57600080fd5b600082511161056957600080fd5b600073ffffffffffffffffffffffffffffffffffffffff163373ffffffffffffffffffffffffffffffffffffffff16036105a257600080fd5b600084116105af57600080fd5b600160008154809291906105c290610ea0565b91905055506040518060e0016040528060015481526020018681526020018581526020018481526020018381526020018281526020013373ffffffffffffffffffffffffffffffffffffffff168152506002600060015481526020019081526020016000206000820151816000015560208201518160010190816106469190611094565b506040820151816002015560608201518160030190816106669190611094565b50608082015181600401908161067c9190611094565b5060a08201518160050190816106929190611094565b5060c08201518160060160006101000a81548173ffffffffffffffffffffffffffffffffffffffff021916908373ffffffffffffffffffffffffffffffffffffffff1602179055509050507ff69a2d8d6b9703170e6d92636c1f14e33e29147131e6ed5d6104810ad7da08de600154868686863360405161071896959493929190611166565b60405180910390a15050505050565b600260205280600052604060002060009150905080600001549080600101805461075090610e17565b80601f016020809104026020016040519081016040528092919081815260200182805461077c90610e17565b80156107c95780601f1061079e576101008083540402835291602001916107c9565b820191906000526020600020905b8154815290600101906020018083116107ac57829003601f168201915b5050505050908060020154908060030180546107e490610e17565b80601f016020809104026020016040519081016040528092919081815260200182805461081090610e17565b801561085d5780601f106108325761010080835404028352916020019161085d565b820191906000526020600020905b81548152906001019060200180831161084057829003601f168201915b50505050509080600401805461087290610e17565b80601f016020809104026020016040519081016040528092919081815260200182805461089e90610e17565b80156108eb5780601f106108c0576101008083540402835291602001916108eb565b820191906000526020600020905b8154815290600101906020018083116108ce57829003601f168201915b50505050509080600501805461090090610e17565b80601f016020809104026020016040519081016040528092919081815260200182805461092c90610e17565b80156109795780601f1061094e57610100808354040283529160200191610979565b820191906000526020600020905b81548152906001019060200180831161095c57829003601f168201915b5050505050908060060160009054906101000a900473ffffffffffffffffffffffffffffffffffffffff16905087565b600081519050919050565b600082825260208201905092915050565b60005b838110156109e35780820151818401526020810190506109c8565b60008484015250505050565b6000601f19601f8301169050919050565b6000610a0b826109a9565b610a1581856109b4565b9350610a258185602086016109c5565b610a2e816109ef565b840191505092915050565b60006020820190508181036000830152610a538184610a00565b905092915050565b6000604051905090565b600080fd5b600080fd5b6000819050919050565b610a8281610a6f565b8114610a8d57600080fd5b50565b600081359050610a9f81610a79565b92915050565b600060208284031215610abb57610aba610a65565b5b6000610ac984828501610a90565b91505092915050565b610adb81610a6f565b82525050565b600073ffffffffffffffffffffffffffffffffffffffff82169050919050565b6000610b0c82610ae1565b9050919050565b610b1c81610b01565b82525050565b600060e082019050610b37600083018a610ad2565b8181036020830152610b498189610a00565b9050610b586040830188610ad2565b8181036060830152610b6a8187610a00565b90508181036080830152610b7e8186610a00565b905081810360a0830152610b928185610a00565b9050610ba160c0830184610b13565b98975050505050505050565b6000602082019050610bc26000830184610ad2565b92915050565b600080fd5b600080fd5b7f4e487b7100000000000000000000000000000000000000000000000000000000600052604160045260246000fd5b610c0a826109ef565b810181811067ffffffffffffffff82111715610c2957610c28610bd2565b5b80604052505050565b6000610c3c610a5b565b9050610c488282610c01565b919050565b600067ffffffffffffffff821115610c6857610c67610bd2565b5b610c71826109ef565b9050602081019050919050565b82818337600083830152505050565b6000610ca0610c9b84610c4d565b610c32565b905082815260208101848484011115610cbc57610cbb610bcd565b5b610cc7848285610c7e565b509392505050565b600082601f830112610ce457610ce3610bc8565b5b8135610cf4848260208601610c8d565b91505092915050565b600080600080600060a08688031215610d1957610d18610a65565b5b600086013567ffffffffffffffff811115610d3757610d36610a6a565b5b610d4388828901610ccf565b9550506020610d5488828901610a90565b945050604086013567ffffffffffffffff811115610d7557610d74610a6a565b5b610d8188828901610ccf565b935050606086013567ffffffffffffffff811115610da257610da1610a6a565b5b610dae88828901610ccf565b925050608086013567ffffffffffffffff811115610dcf57610dce610a6a565b5b610ddb88828901610ccf565b9150509295509295909350565b7f4e487b7100000000000000000000000000000000000000000000000000000000600052602260045260246000fd5b60006002820490506001821680610e2f57607f821691505b602082108103610e4257610e41610de8565b5b50919050565b7f4e487b7100000000000000000000000000000000000000000000000000000000600052601160045260246000fd5b6000610e8282610a6f565b915060008203610e9557610e94610e48565b5b600182039050919050565b6000610eab82610a6f565b91507fffffffffffffffffffffffffffffffffffffffffffffffffffffffffffffffff8203610edd57610edc610e48565b5b600182019050919050565b60008190508160005260206000209050919050565b60006020601f8301049050919050565b600082821b905092915050565b600060088302610f4a7fffffffffffffffffffffffffffffffffffffffffffffffffffffffffffffffff82610f0d565b610f548683610f0d565b95508019841693508086168417925050509392505050565b6000819050919050565b6000610f91610f8c610f8784610a6f565b610f6c565b610a6f565b9050919050565b6000819050919050565b610fab83610f76565b610fbf610fb782610f98565b848454610f1a565b825550505050565b600090565b610fd4610fc7565b610fdf818484610fa2565b505050565b5b8181101561100357610ff8600082610fcc565b600181019050610fe5565b5050565b601f8211156110485761101981610ee8565b61102284610efd565b81016020851015611031578190505b61104561103d85610efd565b830182610fe4565b50505b505050565b600082821c905092915050565b600061106b6000198460080261104d565b1980831691505092915050565b6000611084838361105a565b9150826002028217905092915050565b61109d826109a9565b67ffffffffffffffff8111156110b6576110b5610bd2565b5b6110c08254610e17565b6110cb828285611007565b600060209050601f8311600181146110fe57600084156110ec578287015190505b6110f68582611078565b86555061115e565b601f19841661110c86610ee8565b60005b828110156111345784890151825560018201915060208501945060208101905061110f565b86831015611151578489015161114d601f89168261105a565b8355505b6001600288020188555050505b505050505050565b600060c08201905061117b6000830189610ad2565b818103602083015261118d8188610a00565b905061119c6040830187610ad2565b81810360608301526111ae8186610a00565b905081810360808301526111c28185610a00565b90506111d160a0830184610b13565b97965050505050505056fea2646970667358221220afa15e6b328d19fe3366e7398a8bcb0fabed45285c84205a73ce136c44aa5d4064736f6c63430008110033",
  "linkReferences": {},
  "deployedLinkReferences": {}
}