{
  "_format": "hh-sol-artifact-1",
  "contractName": "Journal",
  "sourceName": "contracts/Journal.sol",
  "abi": [
    {
      "anonymous": false,
      "inputs": [
        {
          "indexed": false,
          "internalType": "uint256",
          "name": "outputIdNumber",
          "type": "uint256"
        },
        {
          "indexed": false,
          "internalType": "string",
          "name": "outputPath",
          "type": "string"
        },
        {
          "indexed": false,
          "internalType": "string",
          "name": "outputHash",
          "type": "string"
        },
        {
          "indexed": false,
          "internalType": "bool",
          "name": "isPublished",
          "type": "bool"
        },
        {
          "indexed": false,
          "internalType": "address payable",
          "name": "uploader",
          "type": "address"
        }
      ],
      "name": "OutputUploaded",
      "type": "event"
    },
    {
      "inputs": [
        {
          "internalType": "uint256",
          "name": "_outputNumber",
          "type": "uint256"
        }
      ],
      "name": "getOutputByFileNumber",
      "outputs": [
        {
          "internalType": "uint256",
          "name": "",
          "type": "uint256"
        },
        {
          "internalType": "string",
          "name": "",
          "type": "string"
        },
        {
          "internalType": "string",
          "name": "",
          "type": "string"
        },
        {
          "internalType": "bool",
          "name": "",
          "type": "bool"
        },
        {
          "internalType": "address payable",
          "name": "",
          "type": "address"
        },
        {
          "internalType": "address[]",
          "name": "",
          "type": "address[]"
        }
      ],
      "stateMutability": "view",
      "type": "function"
    },
    {
      "inputs": [
        {
          "internalType": "address",
          "name": "_reviewerAddress",
          "type": "address"
        }
      ],
      "name": "getOutputIdsByReviewerAddress",
      "outputs": [
        {
          "internalType": "uint256[]",
          "name": "",
          "type": "uint256[]"
        }
      ],
      "stateMutability": "view",
      "type": "function"
    },
    {
      "inputs": [
        {
          "internalType": "address",
          "name": "_uploaderAddress",
          "type": "address"
        }
      ],
      "name": "getOutputIdsByUploaderAddress",
      "outputs": [
        {
          "internalType": "uint256[]",
          "name": "",
          "type": "uint256[]"
        }
      ],
      "stateMutability": "view",
      "type": "function"
    },
    {
      "inputs": [
        {
          "internalType": "uint256",
          "name": "_outputId",
          "type": "uint256"
        }
      ],
      "name": "getReviewers",
      "outputs": [
        {
          "internalType": "address[]",
          "name": "",
          "type": "address[]"
        }
      ],
      "stateMutability": "view",
      "type": "function"
    },
    {
      "inputs": [
        {
          "internalType": "address",
          "name": "_callerAddress",
          "type": "address"
        },
        {
          "internalType": "uint256",
          "name": "_outputId",
          "type": "uint256"
        }
      ],
      "name": "isReviewer",
      "outputs": [
        {
          "internalType": "bool",
          "name": "",
          "type": "bool"
        }
      ],
      "stateMutability": "view",
      "type": "function"
    },
    {
      "inputs": [],
      "name": "name",
      "outputs": [
        {
          "internalType": "string",
          "name": "",
          "type": "string"
        }
      ],
      "stateMutability": "view",
      "type": "function"
    },
    {
      "inputs": [],
      "name": "outputCount",
      "outputs": [
        {
          "internalType": "uint256",
          "name": "",
          "type": "uint256"
        }
      ],
      "stateMutability": "view",
      "type": "function"
    },
    {
      "inputs": [
        {
          "internalType": "address",
          "name": "",
          "type": "address"
        },
        {
          "internalType": "uint256",
          "name": "",
          "type": "uint256"
        }
      ],
      "name": "outputIdsByReviewerAddress",
      "outputs": [
        {
          "internalType": "uint256",
          "name": "",
          "type": "uint256"
        }
      ],
      "stateMutability": "view",
      "type": "function"
    },
    {
      "inputs": [
        {
          "internalType": "address",
          "name": "",
          "type": "address"
        },
        {
          "internalType": "uint256",
          "name": "",
          "type": "uint256"
        }
      ],
      "name": "outputIdsByUploaderAddress",
      "outputs": [
        {
          "internalType": "uint256",
          "name": "",
          "type": "uint256"
        }
      ],
      "stateMutability": "view",
      "type": "function"
    },
    {
      "inputs": [
        {
          "internalType": "uint256",
          "name": "",
          "type": "uint256"
        }
      ],
      "name": "outputsByIdNumber",
      "outputs": [
        {
          "internalType": "uint256",
          "name": "outputIdNumber",
          "type": "uint256"
        },
        {
          "internalType": "string",
          "name": "outputPath",
          "type": "string"
        },
        {
          "internalType": "string",
          "name": "outputHash",
          "type": "string"
        },
        {
          "internalType": "bool",
          "name": "isPublished",
          "type": "bool"
        },
        {
          "internalType": "address payable",
          "name": "uploader",
          "type": "address"
        }
      ],
      "stateMutability": "view",
      "type": "function"
    },
    {
      "inputs": [
        {
          "internalType": "uint256",
          "name": "_outputId",
          "type": "uint256"
        },
        {
          "internalType": "bool",
          "name": "_isPublished",
          "type": "bool"
        }
      ],
      "name": "setIsPublished",
      "outputs": [],
      "stateMutability": "nonpayable",
      "type": "function"
    },
    {
      "inputs": [
        {
          "internalType": "uint256",
          "name": "_outputId",
          "type": "uint256"
        },
        {
          "internalType": "string",
          "name": "_outputPath",
          "type": "string"
        },
        {
          "internalType": "string",
          "name": "_outputHash",
          "type": "string"
        },
        {
          "internalType": "bool",
          "name": "_isPublished",
          "type": "bool"
        }
      ],
      "name": "updateOutput",
      "outputs": [],
      "stateMutability": "nonpayable",
      "type": "function"
    },
    {
      "inputs": [
        {
          "internalType": "string",
          "name": "_outputPath",
          "type": "string"
        },
        {
          "internalType": "string",
          "name": "_outputHash",
          "type": "string"
        },
        {
          "internalType": "bool",
          "name": "_isPublished",
          "type": "bool"
        },
        {
          "internalType": "address[]",
          "name": "_reviewers",
          "type": "address[]"
        }
      ],
      "name": "uploadOutput",
      "outputs": [],
      "stateMutability": "nonpayable",
      "type": "function"
    }
  ],
  "bytecode": "0x60806040526040518060400160405280601281526020017f426c6f636b636861696e204a6f75726e616c0000000000000000000000000000815250600090816200004a9190620002de565b5060006001553480156200005d57600080fd5b50620003c5565b600081519050919050565b7f4e487b7100000000000000000000000000000000000000000000000000000000600052604160045260246000fd5b7f4e487b7100000000000000000000000000000000000000000000000000000000600052602260045260246000fd5b60006002820490506001821680620000e657607f821691505b602082108103620000fc57620000fb6200009e565b5b50919050565b60008190508160005260206000209050919050565b60006020601f8301049050919050565b600082821b905092915050565b600060088302620001667fffffffffffffffffffffffffffffffffffffffffffffffffffffffffffffffff8262000127565b62000172868362000127565b95508019841693508086168417925050509392505050565b6000819050919050565b6000819050919050565b6000620001bf620001b9620001b3846200018a565b62000194565b6200018a565b9050919050565b6000819050919050565b620001db836200019e565b620001f3620001ea82620001c6565b84845462000134565b825550505050565b600090565b6200020a620001fb565b62000217818484620001d0565b505050565b5b818110156200023f576200023360008262000200565b6001810190506200021d565b5050565b601f8211156200028e57620002588162000102565b620002638462000117565b8101602085101562000273578190505b6200028b620002828562000117565b8301826200021c565b50505b505050565b600082821c905092915050565b6000620002b36000198460080262000293565b1980831691505092915050565b6000620002ce8383620002a0565b9150826002028217905092915050565b620002e98262000064565b67ffffffffffffffff8111156200030557620003046200006f565b5b620003118254620000cd565b6200031e82828562000243565b600060209050601f83116001811462000356576000841562000341578287015190505b6200034d8582620002c0565b865550620003bd565b601f198416620003668662000102565b60005b82811015620003905784890151825560018201915060208501945060208101905062000369565b86831015620003b05784890151620003ac601f891682620002a0565b8355505b6001600288020188555050505b505050505050565b611ddb80620003d56000396000f3fe608060405234801561001057600080fd5b50600436106100cf5760003560e01c80632c4882e81161008c5780634001d40d116100665780634001d40d14610238578063a4811a521461026d578063dec37cdc1461029d578063f7dce2e3146102d1576100cf565b80632c4882e8146101bc578063340f39e5146101d85780633e73cf3914610208576100cf565b806302afb4b4146100d457806306fdde03146101045780630ee2d3311461012257806314d3ff221461014057806314f9b4701461015c5780632363701c1461018c575b600080fd5b6100ee60048036038101906100e99190611078565b6102ed565b6040516100fb9190611195565b60405180910390f35b61010c610391565b6040516101199190611247565b60405180910390f35b61012a61041f565b6040516101379190611278565b60405180910390f35b61015a600480360381019061015591906112cb565b610425565b005b61017660048036038101906101719190611337565b6104fb565b6040516101839190611386565b60405180910390f35b6101a660048036038101906101a191906113a1565b6105e6565b6040516101b3919061148c565b60405180910390f35b6101d660048036038101906101d191906116ab565b610683565b005b6101f260048036038101906101ed9190611337565b6108c4565b6040516101ff9190611278565b60405180910390f35b610222600480360381019061021d91906113a1565b6108f5565b60405161022f919061148c565b60405180910390f35b610252600480360381019061024d9190611078565b610992565b60405161026496959493929190611787565b60405180910390f35b61028760048036038101906102829190611337565b610c1f565b6040516102949190611278565b60405180910390f35b6102b760048036038101906102b29190611078565b610c50565b6040516102c89594939291906117fd565b60405180910390f35b6102eb60048036038101906102e6919061185e565b610dc3565b005b60606002600083815260200190815260200160002060040180548060200260200160405190810160405280929190818152602001828054801561038557602002820191906000526020600020905b8160009054906101000a900473ffffffffffffffffffffffffffffffffffffffff1673ffffffffffffffffffffffffffffffffffffffff168152602001906001019080831161033b575b50505050509050919050565b6000805461039e9061192c565b80601f01602080910402602001604051908101604052809291908181526020018280546103ca9061192c565b80156104175780601f106103ec57610100808354040283529160200191610417565b820191906000526020600020905b8154815290600101906020018083116103fa57829003601f168201915b505050505081565b60015481565b3373ffffffffffffffffffffffffffffffffffffffff166002600084815260200190815260200160002060030160019054906101000a900473ffffffffffffffffffffffffffffffffffffffff1673ffffffffffffffffffffffffffffffffffffffff16146104c9576040517f08c379a00000000000000000000000000000000000000000000000000000000081526004016104c0906119cf565b60405180910390fd5b806002600084815260200190815260200160002060030160006101000a81548160ff0219169083151502179055505050565b600080600460008573ffffffffffffffffffffffffffffffffffffffff1673ffffffffffffffffffffffffffffffffffffffff16815260200190815260200160002080548060200260200160405190810160405280929190818152602001828054801561058757602002820191906000526020600020905b815481526020019060010190808311610573575b5050505050905060005b81518110156105d957838282815181106105ae576105ad6119ef565b5b6020026020010151036105c6576001925050506105e0565b80806105d190611a4d565b915050610591565b5060009150505b92915050565b60606000600360008473ffffffffffffffffffffffffffffffffffffffff1673ffffffffffffffffffffffffffffffffffffffff16815260200190815260200160002080548060200260200160405190810160405280929190818152602001828054801561067357602002820191906000526020600020905b81548152602001906001019080831161065f575b5050505050905080915050919050565b600084511161069157600080fd5b600083511161069f57600080fd5b600073ffffffffffffffffffffffffffffffffffffffff163373ffffffffffffffffffffffffffffffffffffffff16036106d857600080fd5b600160008154809291906106eb90611a4d565b91905055506040518060c00160405280600154815260200185815260200184815260200183151581526020013373ffffffffffffffffffffffffffffffffffffffff1681526020018281525060026000600154815260200190815260200160002060008201518160000155602082015181600101908161076b9190611c41565b5060408201518160020190816107819190611c41565b5060608201518160030160006101000a81548160ff02191690831515021790555060808201518160030160016101000a81548173ffffffffffffffffffffffffffffffffffffffff021916908373ffffffffffffffffffffffffffffffffffffffff16021790555060a0820151816004019080519060200190610805929190610f87565b50905050600360003373ffffffffffffffffffffffffffffffffffffffff1673ffffffffffffffffffffffffffffffffffffffff168152602001908152602001600020600154908060018154018082558091505060019003906000526020600020016000909190919091505561087d81600154610ee3565b7f4ddf74a54a02075e1c18f0d03570ca08783e2baaef72e38c2daf611c9ae1fb28600154858585336040516108b69594939291906117fd565b60405180910390a150505050565b600460205281600052604060002081815481106108e057600080fd5b90600052602060002001600091509150505481565b60606000600460008473ffffffffffffffffffffffffffffffffffffffff1673ffffffffffffffffffffffffffffffffffffffff16815260200190815260200160002080548060200260200160405190810160405280929190818152602001828054801561098257602002820191906000526020600020905b81548152602001906001019080831161096e575b5050505050905080915050919050565b600060608060008060606000600260008981526020019081526020016000206040518060c0016040529081600082015481526020016001820180546109d69061192c565b80601f0160208091040260200160405190810160405280929190818152602001828054610a029061192c565b8015610a4f5780601f10610a2457610100808354040283529160200191610a4f565b820191906000526020600020905b815481529060010190602001808311610a3257829003601f168201915b50505050508152602001600282018054610a689061192c565b80601f0160208091040260200160405190810160405280929190818152602001828054610a949061192c565b8015610ae15780601f10610ab657610100808354040283529160200191610ae1565b820191906000526020600020905b815481529060010190602001808311610ac457829003601f168201915b505050505081526020016003820160009054906101000a900460ff161515151581526020016003820160019054906101000a900473ffffffffffffffffffffffffffffffffffffffff1673ffffffffffffffffffffffffffffffffffffffff1673ffffffffffffffffffffffffffffffffffffffff16815260200160048201805480602002602001604051908101604052809291908181526020018280548015610be057602002820191906000526020600020905b8160009054906101000a900473ffffffffffffffffffffffffffffffffffffffff1673ffffffffffffffffffffffffffffffffffffffff1681526020019060010190808311610b96575b5050505050815250509050806000015181602001518260400151836060015184608001518560a001519650965096509650965096505091939550919395565b60036020528160005260406000208181548110610c3b57600080fd5b90600052602060002001600091509150505481565b6002602052806000526040600020600091509050806000015490806001018054610c799061192c565b80601f0160208091040260200160405190810160405280929190818152602001828054610ca59061192c565b8015610cf25780601f10610cc757610100808354040283529160200191610cf2565b820191906000526020600020905b815481529060010190602001808311610cd557829003601f168201915b505050505090806002018054610d079061192c565b80601f0160208091040260200160405190810160405280929190818152602001828054610d339061192c565b8015610d805780601f10610d5557610100808354040283529160200191610d80565b820191906000526020600020905b815481529060010190602001808311610d6357829003601f168201915b5050505050908060030160009054906101000a900460ff16908060030160019054906101000a900473ffffffffffffffffffffffffffffffffffffffff16905085565b3373ffffffffffffffffffffffffffffffffffffffff166002600086815260200190815260200160002060030160019054906101000a900473ffffffffffffffffffffffffffffffffffffffff1673ffffffffffffffffffffffffffffffffffffffff1614610e67576040517f08c379a0000000000000000000000000000000000000000000000000000000008152600401610e5e90611d85565b60405180910390fd5b82600260008681526020019081526020016000206001019081610e8a9190611c41565b5081600260008681526020019081526020016000206002019081610eae9190611c41565b50806002600086815260200190815260200160002060030160006101000a81548160ff02191690831515021790555050505050565b60005b8251811015610f825760046000848381518110610f0657610f056119ef565b5b602002602001015173ffffffffffffffffffffffffffffffffffffffff1673ffffffffffffffffffffffffffffffffffffffff1681526020019081526020016000208290806001815401808255809150506001900390600052602060002001600090919091909150558080610f7a90611a4d565b915050610ee6565b505050565b828054828255906000526020600020908101928215611000579160200282015b82811115610fff5782518260006101000a81548173ffffffffffffffffffffffffffffffffffffffff021916908373ffffffffffffffffffffffffffffffffffffffff16021790555091602001919060010190610fa7565b5b50905061100d9190611011565b5090565b5b8082111561102a576000816000905550600101611012565b5090565b6000604051905090565b600080fd5b600080fd5b6000819050919050565b61105581611042565b811461106057600080fd5b50565b6000813590506110728161104c565b92915050565b60006020828403121561108e5761108d611038565b5b600061109c84828501611063565b91505092915050565b600081519050919050565b600082825260208201905092915050565b6000819050602082019050919050565b600073ffffffffffffffffffffffffffffffffffffffff82169050919050565b60006110fc826110d1565b9050919050565b61110c816110f1565b82525050565b600061111e8383611103565b60208301905092915050565b6000602082019050919050565b6000611142826110a5565b61114c81856110b0565b9350611157836110c1565b8060005b8381101561118857815161116f8882611112565b975061117a8361112a565b92505060018101905061115b565b5085935050505092915050565b600060208201905081810360008301526111af8184611137565b905092915050565b600081519050919050565b600082825260208201905092915050565b60005b838110156111f15780820151818401526020810190506111d6565b60008484015250505050565b6000601f19601f8301169050919050565b6000611219826111b7565b61122381856111c2565b93506112338185602086016111d3565b61123c816111fd565b840191505092915050565b60006020820190508181036000830152611261818461120e565b905092915050565b61127281611042565b82525050565b600060208201905061128d6000830184611269565b92915050565b60008115159050919050565b6112a881611293565b81146112b357600080fd5b50565b6000813590506112c58161129f565b92915050565b600080604083850312156112e2576112e1611038565b5b60006112f085828601611063565b9250506020611301858286016112b6565b9150509250929050565b611314816110f1565b811461131f57600080fd5b50565b6000813590506113318161130b565b92915050565b6000806040838503121561134e5761134d611038565b5b600061135c85828601611322565b925050602061136d85828601611063565b9150509250929050565b61138081611293565b82525050565b600060208201905061139b6000830184611377565b92915050565b6000602082840312156113b7576113b6611038565b5b60006113c584828501611322565b91505092915050565b600081519050919050565b600082825260208201905092915050565b6000819050602082019050919050565b61140381611042565b82525050565b600061141583836113fa565b60208301905092915050565b6000602082019050919050565b6000611439826113ce565b61144381856113d9565b935061144e836113ea565b8060005b8381101561147f5781516114668882611409565b975061147183611421565b925050600181019050611452565b5085935050505092915050565b600060208201905081810360008301526114a6818461142e565b905092915050565b600080fd5b600080fd5b7f4e487b7100000000000000000000000000000000000000000000000000000000600052604160045260246000fd5b6114f0826111fd565b810181811067ffffffffffffffff8211171561150f5761150e6114b8565b5b80604052505050565b600061152261102e565b905061152e82826114e7565b919050565b600067ffffffffffffffff82111561154e5761154d6114b8565b5b611557826111fd565b9050602081019050919050565b82818337600083830152505050565b600061158661158184611533565b611518565b9050828152602081018484840111156115a2576115a16114b3565b5b6115ad848285611564565b509392505050565b600082601f8301126115ca576115c96114ae565b5b81356115da848260208601611573565b91505092915050565b600067ffffffffffffffff8211156115fe576115fd6114b8565b5b602082029050602081019050919050565b600080fd5b6000611627611622846115e3565b611518565b9050808382526020820190506020840283018581111561164a5761164961160f565b5b835b81811015611673578061165f8882611322565b84526020840193505060208101905061164c565b5050509392505050565b600082601f830112611692576116916114ae565b5b81356116a2848260208601611614565b91505092915050565b600080600080608085870312156116c5576116c4611038565b5b600085013567ffffffffffffffff8111156116e3576116e261103d565b5b6116ef878288016115b5565b945050602085013567ffffffffffffffff8111156117105761170f61103d565b5b61171c878288016115b5565b935050604061172d878288016112b6565b925050606085013567ffffffffffffffff81111561174e5761174d61103d565b5b61175a8782880161167d565b91505092959194509250565b6000611771826110d1565b9050919050565b61178181611766565b82525050565b600060c08201905061179c6000830189611269565b81810360208301526117ae818861120e565b905081810360408301526117c2818761120e565b90506117d16060830186611377565b6117de6080830185611778565b81810360a08301526117f08184611137565b9050979650505050505050565b600060a0820190506118126000830188611269565b8181036020830152611824818761120e565b90508181036040830152611838818661120e565b90506118476060830185611377565b6118546080830184611778565b9695505050505050565b6000806000806080858703121561187857611877611038565b5b600061188687828801611063565b945050602085013567ffffffffffffffff8111156118a7576118a661103d565b5b6118b3878288016115b5565b935050604085013567ffffffffffffffff8111156118d4576118d361103d565b5b6118e0878288016115b5565b92505060606118f1878288016112b6565b91505092959194509250565b7f4e487b7100000000000000000000000000000000000000000000000000000000600052602260045260246000fd5b6000600282049050600182168061194457607f821691505b602082108103611957576119566118fd565b5b50919050565b7f4f6e6c79207468652075706c6f616465722063616e207075626c69736820746860008201527f65206f7574707574000000000000000000000000000000000000000000000000602082015250565b60006119b96028836111c2565b91506119c48261195d565b604082019050919050565b600060208201905081810360008301526119e8816119ac565b9050919050565b7f4e487b7100000000000000000000000000000000000000000000000000000000600052603260045260246000fd5b7f4e487b7100000000000000000000000000000000000000000000000000000000600052601160045260246000fd5b6000611a5882611042565b91507fffffffffffffffffffffffffffffffffffffffffffffffffffffffffffffffff8203611a8a57611a89611a1e565b5b600182019050919050565b60008190508160005260206000209050919050565b60006020601f8301049050919050565b600082821b905092915050565b600060088302611af77fffffffffffffffffffffffffffffffffffffffffffffffffffffffffffffffff82611aba565b611b018683611aba565b95508019841693508086168417925050509392505050565b6000819050919050565b6000611b3e611b39611b3484611042565b611b19565b611042565b9050919050565b6000819050919050565b611b5883611b23565b611b6c611b6482611b45565b848454611ac7565b825550505050565b600090565b611b81611b74565b611b8c818484611b4f565b505050565b5b81811015611bb057611ba5600082611b79565b600181019050611b92565b5050565b601f821115611bf557611bc681611a95565b611bcf84611aaa565b81016020851015611bde578190505b611bf2611bea85611aaa565b830182611b91565b50505b505050565b600082821c905092915050565b6000611c1860001984600802611bfa565b1980831691505092915050565b6000611c318383611c07565b9150826002028217905092915050565b611c4a826111b7565b67ffffffffffffffff811115611c6357611c626114b8565b5b611c6d825461192c565b611c78828285611bb4565b600060209050601f831160018114611cab5760008415611c99578287015190505b611ca38582611c25565b865550611d0b565b601f198416611cb986611a95565b60005b82811015611ce157848901518255600182019150602085019450602081019050611cbc565b86831015611cfe5784890151611cfa601f891682611c07565b8355505b6001600288020188555050505b505050505050565b7f4f6e6c79207468652075706c6f616465722063616e207570646174652074686560008201527f206f757470757400000000000000000000000000000000000000000000000000602082015250565b6000611d6f6027836111c2565b9150611d7a82611d13565b604082019050919050565b60006020820190508181036000830152611d9e81611d62565b905091905056fea2646970667358221220300f980660bd4264b1722d5b125231d331324880f9ada7e2c698b19fa241fe6964736f6c63430008110033",
  "linkReferences": {},
  "deployedLinkReferences": {}
}